:040000008031122811
:100008007E1480310B1F10282100931D102820001A
:10001800931D1028833186237E100900803114280F
:100028002030B50184000030850015308331A223CB
:1000380080317E1020002028702180319B30F00014
:100048000330F1006A218031FC2080319521803114
:100058008B170B175030F501F50AF6008330F700BF
:1000680001309120803197218031B3003308031D7E
:10007800682837287D2080310330F5007130F6007C
:10008800833065287D2080310330F5005F30F6002D
:10009800833065287D2080310330F5006C30F60010
:1000A800833065287D2080310330F5007930F600F3
:1000B800833065287D2080310330F5009130F600CB
:1000C8008330F700023035283408023A03193E28F5
:1000D800013A03197C28073A03194628013A0319FB
:1000E8004E28033A031956280E3A03195E28372872
:1000F80037282E30F501F50AF6008330F700023074
:10010800912080310230F201F20AD720803120009C
:100118003308A92080313A30A928F9007508F2007F
:100128007908D72080317608840077088500000890
:10013800A9208031F60A0319F70A7608840077089F
:1001480085001200031908009728F1006521803105
:1001580022000C177108F0000430F036890BB12822
:1001680012238031003200320032003222008C1318
:10017800E43000320032890BBD28003200320F30E3
:100188007105F00022001223803100320032003263
:10019800003222008C13E43000320032890BD02860
:1001A800003200320800F300E62872087F3EE42897
:1001B8007208BF3EE4287208933EE4287208D33ED2
:1001C800F400F4287308013A0319D928033A0319EB
:1001D800DC28013A0319DF28073A0319E228F42832
:1001E800740837218031A0300032890BF8280800C4
:1001F800F03021008D058C130C13D030F200CA307A
:10020800890B0429F20B042922000C138C130D0806
:10021800F03902388D008C1700320032003200327B
:1002280022008C133430F200F230890B1929F20BBA
:1002380019292830372180316A30890B2129003269
:100248000C30372180316A30890B2829003206307A
:10025800372180311530F200C630890B3129F20B75
:10026800312900320800F1006521803122000C1389
:100278007108F0000430F036890B3F2918238031CB
:10028800003200320032003222008C133430F00089
:10029800F230890B4D29F00B4D290F307105F00014
:1002A800220018238031003200320032003222004E
:1002B8008C133430F000F230890B6029F00B602980
:1002C8000800A0300032890B662908007108200058
:1002D800AD007008AC0008007E21803177218031A4
:1002E80019228031082A70302100990098011A1BC0
:1002F80008007B2922008C018D01303021008C0000
:10030800F0308D0023008D0110308C00F030240077
:100318008D0020308C002100951322009E019D0144
:1003280008000130372922000D108D100D118D1194
:100338002000AE01AF010D1AA429AE01AE0AB02902
:100348008D1AA8290230AF290D1BAC290330AF291B
:100358008D1BB0290430AE002E080319E529AF0122
:10036800AF0ACB2922000D108D14BD2922000D14CF
:100378008D100D15C32922000D148D140D118D1526
:10038800D92922000D148D140D158D11D9292F0886
:10039800013A0319B629033A0319BA29013A03198C
:1003A800BF29073A0319C529D92920000D1A8D1E1E
:1003B800E5290D1B8D1FE5290530AF0A2F02031C07
:1003C800CB292F080319062A2E080319062A2F08F5
:1003D800F8001930F901F835F90DF835F90DFA007A
:1003E8008330FB0078087A07FC0079087B3DFD0024
:1003F8002E087C0784007D0803187D0A8500000804
:10040800B200072AB2011F2A0A3028009E00F930DC
:100418009D009C012000931121009315A830F00045
:100428000330F1006A2180311C2A16309700080039
:1004380028001E150800E72A320803192D2AF2227F
:1004480080310923B401B40A3208B100B51035105F
:100458000034B101003432083106031D4A2AF22261
:100468008031FB228031031D432A7608031D432A6D
:100478007508031D432A15307402031C003402302A
:10048800B400F22280310923320808003208B10092
:10049800F2228031092300343208031D2F2AB401C7
:1004A80000343208031900340330442A320803198F
:1004B8008D2A32083106031D00343518772AF222B6
:1004C8008031FB228031031D722A7608031D722AAF
:1004D8002D3074020130753B031C772A0530351422
:1004E800B40032080800B518482AF2228031FB22ED
:1004F8008031031D882A7608031D882ADD3074029E
:100508000530753B031C482A0630B514B400320880
:100518000800F2228031092380310730B22A3208DC
:10052800031900340330B400320808003208031DF0
:10053800B12AF2228031FB228031031DAD2A7608D0
:10054800031DAD2A7508031DAD2A15307402031C5E
:1005580000340830B400310808000330B400003417
:10056800B4013108080031083006031DDA2AF222E6
:10057800803124087002F4002508713BF500260834
:10058800723BF6002708733BF7007708031DDA2A49
:100598007608031DDA2A7508031DDA2AFA30740270
:1005A8000318DA2A0430B400310808003108B00012
:1005B800F22280317308A7007208A6007108A5000E
:1005C8007008A400B42A340884000930040203180F
:1005D8000034833104353E3E820008002308F300CE
:1005E8002208F2002108F1002008F000080028087D
:1005F8007002F4002908713BF5002A08723BF600E6
:100608002B08733BF700770808007308AB007208E3
:10061800AA007108A9007008A80008000D08F039A0
:1006280070048D008C1708000D08F03970048D00D7
:100638008C1708003134323433344134343435348F
:100648003634423437343834393443342A34303445
:1006580023344434203420342034203420342034CB
:1006680020342034203420342034203420342034E2
:10067800203400348231202A8231502A8231552A8E
:1006880082315A2A8231B42A8231932A8231932ABA
:1006980082319A2A8231B72A343478343434203477
:1006A8005434753473342034543461346B346934BD
:1006B8006D34693400344334493446345434203476
:1006C800543449344B344C3441344D34413400347F
:1006D8004B34493453344134203442344134533454
:1006E80049344C3444344934003455345A3455343C
:1006F8004E34203442344134533449344C34443435
:100708004934003493112C082D04031908002D08CE
:100718008A002C080A0083310800423449345234D4
:1007280041344B3449344C34443449340034013076
:10073800A0070030A13DA23DA33D08006400800150
:0A0748000131890BA32B00340800D7
:020000040001F9
:04000E0084FFFFDF8D
:00000001FF
