:020000040000FA
:040000006AEF7FF034
:10FED40000016DEF7FF07EEC7FF06FEF7FF000EFBD
:10FEE40000F04C0ED56EC20ED36E000ED26E0E0113
:10FEF400C59B890ED46E120089EC7FF0C0EC7FF0B4
:10FF040097EC7FF0AAEC7FF073EC7FF01200000E08
:10FF14000E01DC6F000EDD6F000EDE6F000EDF6F72
:10FF2400000EE06F000EE16F1200200E0E01D36F81
:10FF3400000ED56F000ED76F020ED96F000ED86F6A
:10FF4400D6A1A7EF7FF0A9EF7FF0A2EF7FF0120018
:10FF54000A0E0E01286F110E296F000E2A6F000E73
:10FF64002B6F000E2C6F020E2D6F000E2E6F000EE5
:10FF74002F6F000E306F860E276F1200000E866EF4
:10FF8400000E856E000E826E000E836E000E846E6F
:10FF9400070E8B6E87688868F70E896E8A680F0172
:10FFA4002169F70E1C6F1469070E296FFE0E0C6F82
:10FFB400000E206F000E286F000E136F000E0B6FE3
:10FFC400000E1B6F000E276F000E0A6F000E126FDB
:10FFD400000E1A6F000E1F6F0969116919691E69F5
:10FFE400070E266F0869106918691D690F0E256FC1
:0CFFF400180E0E01F56F000E1F6F1200BA
:020000040020DA
:10000000FFFFFFFFFFFFFFFFFFFFFFFFFFFFFFFF00
:10001000FFFFFFFFFFFFFFFFFFFFFFFFFFFFFFFFF0
:10002000FFFFFFFFFFFFFFFFFFFFFFFFFFFFFFFFE0
:10003000FFFFFFFFFFFFFFFFFFFFFFFFFFFFFFFFD0
:10004000FFFFFFFFFFFFFFFFFFFFFFFFFFFFFFFFC0
:10005000FFFFFFFFFFFFFFFFFFFFFFFFFFFFFFFFB0
:10006000FFFFFFFFFFFFFFFFFFFFFFFFFFFFFFFFA0
:10007000FFFFFFFFFFFFFFFFFFFFFFFFFFFFFFFF90
:10008000FFFFFFFFFFFFFFFFFFFFFFFFFFFFFFFF80
:10009000FFFFFFFFFFFFFFFFFFFFFFFFFFFFFFFF70
:1000A000FFFFFFFFFFFFFFFFFFFFFFFFFFFFFFFF60
:1000B000FFFFFFFFFFFFFFFFFFFFFFFFFFFFFFFF50
:1000C000FFFFFFFFFFFFFFFFFFFFFFFFFFFFFFFF40
:1000D000FFFFFFFFFFFFFFFFFFFFFFFFFFFFFFFF30
:1000E000FFFFFFFFFFFFFFFFFFFFFFFFFFFFFFFF20
:1000F000FFFFFFFFFFFFFFFFFFFFFFFFFFFFFFFF10
:020000040030CA
:0C000000AAFFFFFF9FFFFFFFFFFFFFFFB5
:00000001FF
