:0600000000008031182809
:100008007E14803120007F08F0000B1F1328210088
:10001800111C13282000111C132884311C2470087B
:100028002000FF007E10090020000308A000803196
:100038001D28FC012000C001C101C201C301C40187
:10004800C5017E1020008131842927302000AB00B3
:100058002B08AF0020002608AC002508AB00A50A35
:100068000319A60A2B0884002C0885000008AD0097
:100078002D08B6003608031908002530360603197E
:100088004A2836088431D42480312E282000B4012F
:10009800B501B301542833150130A5070030A63D3A
:1000A80025088400260885000008303A03194F28DF
:1000B8005D282508840026088500000884318524E9
:1000C8008031031C98282000B401B5010A30F100E2
:1000D8000030F20020003508F4003408F3008331C2
:1000E800B923803172082000B5007108B4002508D2
:1000F8008400260885000008D03EAB00FF300318B6
:100108000030AC002B08B4072C08B53D0130A5071A
:100118000030A63D250884002608850000088431A3
:100128008524803103186A2820002608AC00250899
:10013800AB00A50A0319A60A2B0884002C08850021
:100148000008B600003A03198329643A0319B02855
:100158000D3A0319B0282E2820002F0886008701A1
:10016800403FB100413FB2000230AB002B08AF075F
:10017800B21FC7280330AB002B08B304B109B2097A
:10018800B10A0319B20AB601B60A053036060319D0
:10019800EC283608AB00AC01AB35AC0DAA302B0708
:1001A800840084302C3D8500003FAD00013FAE0047
:1001B8002E083202031DE2282D083102031CEC2808
:1001C8000130AB002B08B60705303606031DCD28D5
:1001D800340835040319F828330803390319F828B3
:1001E800FF30B407FF30B53D3608AB00AC01AB1BA0
:1001F800AC032C08803AAD003508803A2D02031D67
:10020800072934082B020318142920003608AB00EC
:10021800AC01AB1BAC032B08B4022C08B53B172967
:100228002000B401B501331D3029330803390319FF
:1002380021292D308431D42480312000340835041C
:100248000319492930308431D4248031FF3020000B
:10025800B407FF30B53D2229340835040319412974
:1002680020308431D4248031FF302000B407FF309F
:10027800B53D34083504031D3429330803390319FF
:1002880049292D308431D424803120003608AB0030
:100298002B08B000FF302000AB002B08B007300A55
:1002A80003192E280A30A1000030A2003008AB0044
:1002B800AC01AB35AC0DAA302B07840084302C3D43
:1002C8008500003FF100013FF2003208F4003108D8
:1002D800F3008231B222803172082000A400710834
:1002E800A30083314423803120002108303EAD0033
:1002F8002D08B60036088431D42480314E290800F0
:10030800843193248131B430F1000430F200843117
:10031800CE2481318B170B178431C6248131823169
:10032800152281312000201AB129A101A10A6730C4
:10033800A2008430A3000230833199238131153023
:100348002000B8004B30B700BE30890BA929B70B85
:10035800A929B80BA9290000B6292000BA01BB01B8
:10036800C001C1012000A101A10ABE30A200843051
:10037800A30001308331992381312000B901023073
:1003880039020318E829031022000D1C0314031C6A
:10039800D02922000D14D22922000D100B30200084
:1003A800B8002630B7005D30890BD829B70BD8299B
:1003B800B80BD829003201302000B7003708B90738
:1003C80002303902031CC829F801F80A02308331C7
:1003D8007123813157302000A5008430A6003B08E6
:1003E800A8003A08A7004108AA004008A9008031DF
:1003F8002920813105302000B8000F30B700F130D6
:10040800890B042AB70B042AB80B042A64000130AC
:100418002000B7003708C50732304506031DE82914
:10042800142A9C30F800D730890B182AF80B182AA0
:1004380000000030843176248231FC01F901033058
:1004480079020318402AFC017C080F393038F8007B
:100458007808FC008331ED2382313430F800F23023
:10046800890B342AF80B342A0130F8007808F90788
:1004780003307902031C272AF0300032890B412A05
:10048800FC017C080F392038F8007808FC0083311B
:10049800ED2382313430F800F230890B512AF80B01
:1004A800512A28308331152382316A30890B5A2A20
:1004B80000320C308331152382316A30890B622A6D
:1004C800003206308331152382311530F800C630EA
:1004D800890B6C2AF80B6C2A00328431E8248231AB
:1004E8008431DE240800F30022000D120830F100E8
:1004F8007108F40074080319A02A7335F100710813
:10050800F300200003188D2A21008D1220008D127F
:10051800912A21008D1620008D1622000D160A3012
:10052800890B942A003222000D1221008D16013009
:10053800F4027408031D812A22000D1221008D1671
:100548000A30890BA52A003222000D16003020003F
:100558008D1A0130F20022000D120800F601F70191
:10056800710872040319E12AF801F80AF21BC62A75
:100578000130F135F20D890BBD2A0130F5007508FF
:10058800F807BA2A0130F635F70D890BC72A720821
:100598007402031DD12A71087302031CD82A71083A
:1005A800F3027208F43B76140130F236F10C890B31
:1005B800D92A0130F802031DC62A7708F200760806
:1005C800F1000800F7008431D92482317C14F0301E
:1005D8007705F5007C080F397504F6007608FC00ED
:1005E8008331ED238231E43000320032890BF82A5E
:1005F800003200327708F5000430F535890B012BFD
:100608007C080F397504F6007608FC008331ED2369
:100618008231E43000320032890B0E2B0032003276
:100628000800F7008431D92483317C10F030770535
:10063800F5007C080F397504F6007608FC00833154
:10064800ED2383313430F500F230890B292BF50B7B
:10065800292B7708F5000430F535890B302B7C08F9
:100668000F397504F6007608FC008331ED238331D9
:100678003430F500F230890B3F2BF50B3F2B080087
:1006880020002108220403196C2BFA01FA0AA21B84
:10069800572B0130A135A20D890B4E2B0130F900E3
:1006A8007908FA074B2B22082402031D5D2B210829
:1006B8002302031C632B2108A3022208A43B013058
:1006C800A236A10C890B642B0130FA02031D572BAB
:1006D8002408A2002308A1000800FA00822B780849
:1006E8007F3E7E2B7808BF3E7E2B7808933E7E2B7C
:1006F8007808D33EF9007908FB00902B7A08013A74
:100708000319732B033A0319762B013A0319792B32
:10071800073A03197C2B902B7B08833115238331EF
:10072800A0300032890B952B08002000A500210875
:10073800A4002408F80025088331712383312000A0
:10074800220884002308850000088231E6228331CC
:1007580001302000A2070030A33D220884002308AE
:100768008500120003190800A32BF501F601711C7E
:10077800C12B7308F5077408F63D0130F335F40D05
:10078800890BC22B0130F236F10C890BC72B71088B
:100798007204031DBB2B7608F2007508F1000800EF
:1007A80030302000980099013C309700B030960016
:1007B8001708BF001608BE00111021001114F330ED
:1007C800F1000430F2008431CE2483318431F024E6
:1007D80008008431332483317E308231772283319B
:1007E8007C088231772283317C157C08823177221C
:1007F80083317C117C08823177228331843146240D
:10080800080022008C018D01FF3021008C00FE3091
:100818008D00CC3023008D001F308C001230240056
:100828008D008C012100951322009E019D01080076
:10083800200011103F0897003E0896000130C207BB
:100848000030C33D003043020A3003194202031C42
:10085800080084319F242000C201C301080022003F
:100868000D160A30890B362C003221008D1220001B
:100878008D120A30890B3E2C003222000D12210005
:100888008D16080021008D1220008D1222000D16F1
:100898000A30890B4D2C003221008D160A30890B45
:1008A800532C00320800533431343A342534303470
:1008B800343464342034533432343A3425343034C4
:1008C80034346434003457346134743463346834F1
:1008D80064346F3467342034523465347334653487
:1008E80074340034F5008431332484317E3082310D
:1008F8007722843175088231772284318431462405
:100908000800F200F1013A3072020318912C3030DD
:100918007202031C912CF101F10A710C0800843158
:10092800052484318431E32484318431EC248431F6
:100938008331D423080020003C083D040319080033
:100948003D088A003C080A0084310800013400345C
:100958000A34003464340034E8340334103427345F
:1009680001302000BA070030BB3D0130C00700301D
:10097800C13D08004D3465347234683461346234E2
:100988006134003422000D1620008D1621000D124E
:100998008D16080072082000BD007108BC00080010
:1009A800F80078088231E6220800A0300032890B6E
:1009B800DA2C0800FC157C088431762408003830CD
:1009C800210099009801080001308331152308009F
:1009D80016302100970008002000181408000800AD
:020000040001F9
:04000E00FAFFFFFFF7
:00000001FF
