:020000040000FA
:04000000B4EF7EF0EB
:10FD68000001B7EF7EF099EC7FF0B9EF7EF000EF7D
:10FD780000F04B0ED56E9B0ED36E000ED26E0E01A8
:10FD8800C59B890ED46E1200000E0E01DC6F000EAA
:10FD9800DD6F000EDE6F000EDF6F000EE06F000EED
:10FDA800E16F1200200E0E01D36F000ED56F000E0A
:10FDB800D76F020ED96F000ED86FD6A1E6EF7EF08E
:10FDC800E8EF7EF0E1EF7EF01200020E0E01286FE0
:10FDD800110E296F260E2A6F000E2B6F260E2C6F20
:10FDE800020E2D6F080E2E6F000E2F6F800E306FD3
:10FDF800860E276F1200080E0E01326F110E336F38
:10FE0800210E346F000E356F210E366F020E376FDC
:10FE1800080E386F000E396F800E3A6F860E316FFC
:10FE28001200080E0E013C6F110E3D6F220E3E6F40
:10FE3800000E3F6F220E406F020E416F080E426F98
:10FE4800000E436F800E446F860E3B6F1200080E43
:10FE58000E01466F110E476F230E486F000E496F53
:10FE6800230E4A6F020E4B6F080E4C6F000E4D6F3B
:10FE7800800E4E6F860E456F1200080E0E01506FF1
:10FE8800110E516F280E526F000E536F280E546FCB
:10FE9800020E556F080E566F000E576F800E586F82
:10FEA800860E4F6F1200080E0E015A6F110E5B6F0F
:10FEB800250E5C6F000E5D6F250E5E6F020E5F6F84
:10FEC800080E606F000E616F800E626F860E596FAC
:10FED8001200080E0E01646F110E656F240E666F16
:10FEE800000E676F240E686F020E696F080E6A6F46
:10FEF800000E6B6F800E6C6F860E636F1200080E1B
:10FF08000E016E6F110E6F6F270E706F000E716FFE
:10FF1800270E726F020E736F080E746F000E756FE6
:10FF2800800E766F860E6D6F1200C8EC7EF0B2EC14
:10FF38007FF0D6EC7EF0E9EC7EF02BEC7FF041EC24
:10FF48007FF083EC7FF06DEC7FF057EC7FF015ECE1
:10FF58007FF0FFEC7EF0BDEC7EF01200000E866EA6
:10FF6800000E856E000E826E000E836E000E846E8B
:10FF7800070E8B6E87688868C30E896EF00E8A6ECE
:10FF88000F0121691C691469070E296FFE0E0C6F99
:10FF9800000E206F000E286F000E136F000E0B6FFF
:10FFA800000E1B6F000E276F000E0A6F000E126FF7
:10FFB800000E1A6F000E1F6F0969116919691E6911
:10FFC800070E266F0869106918691D690F0E256FDD
:10FFD8001E0E0E01FC6F190EF56F000E1F6F1C0E22
:10FFE800F66F1F0EFD6F180EF46F1A0EFA6F1B0EC8
:08FFF800FB6F1D0EF76F1200F4
:020000040020DA
:10000000FFFFFFFFFFFFFFFFFFFFFFFFFFFFFFFF00
:10001000FFFFFFFFFFFFFFFFFFFFFFFFFFFFFFFFF0
:10002000FFFFFFFFFFFFFFFFFFFFFFFFFFFFFFFFE0
:10003000FFFFFFFFFFFFFFFFFFFFFFFFFFFFFFFFD0
:10004000FFFFFFFFFFFFFFFFFFFFFFFFFFFFFFFFC0
:10005000FFFFFFFFFFFFFFFFFFFFFFFFFFFFFFFFB0
:10006000FFFFFFFFFFFFFFFFFFFFFFFFFFFFFFFFA0
:10007000FFFFFFFFFFFFFFFFFFFFFFFFFFFFFFFF90
:10008000FFFFFFFFFFFFFFFFFFFFFFFFFFFFFFFF80
:10009000FFFFFFFFFFFFFFFFFFFFFFFFFFFFFFFF70
:1000A000FFFFFFFFFFFFFFFFFFFFFFFFFFFFFFFF60
:1000B000FFFFFFFFFFFFFFFFFFFFFFFFFFFFFFFF50
:1000C000FFFFFFFFFFFFFFFFFFFFFFFFFFFFFFFF40
:1000D000FFFFFFFFFFFFFFFFFFFFFFFFFFFFFFFF30
:1000E000FFFFFFFFFFFFFFFFFFFFFFFFFFFFFFFF20
:1000F000FFFFFFFFFFFFFFFFFFFFFFFFFFFFFFFF10
:020000040030CA
:0C000000AAFFFFFF9FFFFFFFFFFFFFFFB5
:00000001FF
