:08000000803102288731FD2F39
:100A6A00163021009700080085315F2585318531D0
:100A7A004225853185313525080038302100990015
:100A8A0098012200960121001A1B0800482DF20144
:100A9A00F30171087302031D542D700872020318C2
:100AAA0008001A30890B572D00320130F207003046
:100ABA00F33D4E2D22008C018D01FF3021008C0068
:100ACA00FC308D00FE3023008D001F308C00240086
:100ADA008D018C012100951722009E019D010800BD
:100AEA00F401F501701C7D2D7208F4077308F53DB9
:100AFA000130F235F30D890B7E2D0130F136F00C01
:100B0A00890B832D70087104031D772D7508F10078
:100B1A007408F00008000030FB000030FA000030D2
:100B2A00F9000030F800701CA22D7408F807750847
:100B3A00F93D7608FA3D7708FB3D0130F435F50DAD
:100B4A00F60DF70D890BA32D0130F336F20CF10CDB
:100B5A00F00C890BAA2D7308720471047004031D2A
:100B6A00982D7B08F3007A08F2007908F1007808DA
:100B7A00F000080000302000A3000030A20001307D
:100B8A00A1006830A0004808F0004908F100F2010D
:100B9A00F3010030F7000030F6000630F50040306F
:100BAA00F40085319025853173082000A70072086A
:100BBA00A6007108A5007008A4008531F5258531C5
:100BCA0020002108CC002008CB004C08AE004B08BE
:100BDA00AD004A08FD007D08AF008631A426080052
:100BEA0000302000AB000030AA000030A90000301D
:100BFA00A800230822042104200403193F2EAC0173
:100C0A00AC0AA31B142E0130A035A10DA20DA30D11
:100C1A00890B092E0130FC007C08AC07062E013036
:100C2A00A835A90DAA0DAB0D890B152E230827028D
:100C3A00031D292E22082602031D292E210825021A
:100C4A00031D292E20082402031C342E2008A40286
:100C5A002108A53B2208A63B2308A73B28140130FC
:100C6A00A336A20CA10CA00C890B352E0130AC02C4
:100C7A00031D142E2B08A3002A08A2002908A1008C
:100C8A002808A000080085313925863180302000E7
:100C9A00AD003E30AE00AF018631A4268631293040
:100CAA002000CE009630CD007F30890B5A2ECD0B16
:100CBA005A2ECE0B5A2E40302000AD001F30AE0007
:100CCA00AF01AF0A8631A426863129302000CE0032
:100CDA009630CD007F30890B702ECD0B702ECE0B47
:100CEA00702ED0302000C8000230C900CA018531F8
:100CFA00BF25863115302000CE004B30CD00BE30E6
:100D0A00890B852ECD0B852ECE0B852E0000D0307B
:100D1A002000C8000230C900CA01CA0A8531BF25AD
:100D2A00863115302000CE004B30CD00BE30890B05
:100D3A009C2ECD0B9C2ECE0B9C2E0000762E7D3049
:100D4A002000B4000030B5000630BA000030BB0005
:100D5A003A09B0003B09B100B00A0319B10A3408D4
:100D6A003007B6003508313DB7003708B1003608FC
:100D7A00B000B035B10DB035B10D3008C200310840
:100D8A00C3003708F1003608F0000A30F2000030DC
:100D9A00F30085317525863171082000BF0070087F
:100DAA00BE003E084207B0003F08433DB10031088B
:100DBA002E02031DE22E30082D020318192F0030CF
:100DCA00A3000030A2000030A1000E30A0002D08C0
:100DDA00B0002E08B100B201B3010230B035B10D36
:100DEA00B20DB30D890BF32E3308A7003208A60003
:100DFA003108A5003008A4008531F5258631200088
:100E0A002108C3002008C2004209B0004309B1000A
:100E1A00B00A0319B10A2D083007BE002E08313D69
:100E2A00BF00BC01BD012A2F3E084207B0003F089F
:100E3A00433DB100B009B109B00A0319B10A2D083E
:100E4A003007BC002E08313DBD002F1C2F2F220079
:100E5A000D14312F22000D102000C001C1013508E8
:100E6A00C7003408C60043084102031D3E2F42084A
:100E7A0040020318812FC401C50100304502043025
:100E8A00031944020318752F22008D142000470805
:100E9A00F1004608F00085314C25863122008D107C
:100EAA0020004708F1004608F00085314C258631BC
:100EBA0001302000C0070030C13D43084102031D34
:100ECA00682F420840020318752F0130C40700300A
:100EDA00C53D00304502043003194402031C492F62
:100EEA000130C6020030C73B3B084706031D7F2F6F
:100EFA003A084606031D382F3C083D040319B32F50
:100F0A003B08C7003A08C600C401C5013D084502AE
:100F1A00031D912F3C0844020318AD2F22008D14A3
:100F2A0020004708F1004608F00085314C2586313B
:100F3A0022008D1020004708F1004608F000853194
:100F4A004C25863101302000C4070030C53D8B2F67
:100F5A003C084007C0003D08413DC100B801B90145
:100F6A003F083902031DBB2F3E0838020318080048
:100F7A00C401C501003045020A30031944020318AE
:100F8A00F22F22008D1420004708F1004608F000D5
:100F9A0085314C25863122008D1020004708F1004A
:100FAA004608F00085314C25863101302000C00703
:100FBA000030C13D2E084102031DE52F2D084002D5
:100FCA00031808000130C4070030C53D003045024F
:100FDA000A3003194402031CC62F38080A3EB80017
:100FEA000030393DB9000130C6070030C73DB52F82
:060FFA0020008631482EA4
:020000040001F9
:04000E00E2FFFFFF0F
:00000001FF
