:08000000803102288731FA2F3C
:100B1600B134163021009700080022008D110D30E7
:100B260086313F26080022008D110C3086313F2683
:100B3600080038302100990098011A1B0800A02DE2
:100B46008531D125853185319C25853185318C25A9
:100B56000800F300F201731CB42D7008F10071084F
:100B6600F2070310F00D0310F30C7308031DAE2DEE
:100B760072080800F60022008D117608403886318A
:100B86003F2685310630F5007508F000740885317A
:100B9600AC258531803886313F26080022008C013D
:100BA6008D01FF3021008C0006308D00FE302300C1
:100BB6008D001F308C00FF3024008D0020308C000B
:100BC6002100951322009E019D010800F401F50104
:100BD600701CF12D7208F4077308F53D0130F235EB
:100BE600F30D890BF22D0130F136F00C890BF72D40
:100BF60070087104031DEB2D7508F1007408F000F0
:100C06000800FD007908FC007C08F4007D088531A9
:100C1600BD2586317A0884007B0885000008873167
:100C26004C2786310130FA070030FB3D7A088400F4
:100C36007B0885001200031908000D2EF800F40148
:100C460078088531BD25863122008D15F90154308D
:100C5600790203183A2E003086313F26863101305C
:100C6600F7007708F90754307902031C2E2EF40199
:100C760078088531BD250800F10022000D13F20128
:100C8600083072020318622E7135F0007008F10008
:100C96002000031C512E22000D16532E22000D1289
:100CA6008D16003200320032003222008D120130E1
:100CB600F0007008F20708307202031C472E0D1769
:100CC600080021000D138D120D128D118D132200B7
:100CD6000D128D128D118D138D178D1121308631C8
:100CE6003F2686312000230886313F268631043090
:100CF60086313F268631143086313F2686312030B4
:100D060086313F2686310C3086313F260800F401B5
:100D160000308531BD25863122008D15F801F90197
:100D26007908803AF70081307702031D9C2EF8304F
:100D360078020318B12E003086313F268631013005
:100D4600F8070030F93D7908803AF70081307702DC
:100D5600031DAF2EF8307802031C9E2EF4010030DE
:100D66008531BD2508008531A32586318631642667
:100D7600863102302000A0002008F9008830FA00F1
:100D86008A30FB000030863104268631023020008E
:100D9600A0002008F9009330FA008A30FB000130E9
:100DA600863104268631F9017A30FA008A30FB0052
:100DB60003308631042686317A302000A100C13006
:100DC600A0008130890BE52EA00BE52EA10BE52EA8
:100DD600003286318A268631F9011730FA008A30C8
:100DE600FB0000308631042686317A302000A100CF
:100DF600C130A0008130890BFE2EA00BFE2EA10B68
:100E0600FE2E00322000A201083022020318242FF1
:100E1600220886312126863111302000A1003C307F
:100E2600A000CB30890B152FA00B152FA10B152F6A
:100E360001302000A0002008A20708302202031C6F
:100E46000B2FF9016C30FA008A30FB000230863134
:100E56000426863185319025863129302000A1006F
:100E66009630A0007F30890B362FA00B362FA10BB2
:100E7600362F85319625863129302000A1009630FF
:100E8600A0007F30890B452FA00B452FA10B452FC6
:100E96002D2FF60022008D15802FDB305F2FE030DE
:100EA6005F2FE5305F2FEA305F2FEF305F2FF43092
:100EB6005F2FF9305F2FFE30F70001306B2F0330C4
:100EC600692F0830692F0D30692F1230F700023074
:100ED600F800A62F7608E03EF000FF300318003039
:100EE600F1000530F2000030F3008531E925873145
:100EF6007108F8007008F700A62F7608C73A03199C
:100F0600502F173A0319522F063A0319542F0A3A4B
:100F16000319562F013A0319582F033A03195A2F6A
:100F2600393A03195C2F173A03195E2F063A03194B
:100F3600622F0A3A0319642F013A0319662F033AFE
:100F46000319682F6D2F7808850077088400003014
:100F560084078830853D000886313F268731013079
:100F6600F7070030F83D78088500770884000030E0
:100F760084078830853D000886313F268731013059
:100F8600F7070030F83D78088500770884000030C0
:100F960084078830853D000886313F268731013039
:100FA600F7070030F83D78088500770884000030A0
:100FB60084078830853D000886313F268731013019
:100FC600F7070030F83D7808850077088400003080
:100FD60084078830853D000886313F2687310130F9
:100FE600F7070030F83D003086313F26080085318E
:100FF6008B25A30020008631B62E00340034003441
:1010060000340034003400345F34003400340034DB
:10101600033400340334003414343E3414343E3480
:10102600143424342A347F342A3412344334333487
:1010360008346634613436344934553422345034F5
:101046000034053403340034003400341C342234B4
:10105600413400340034413422341C340034143416
:1010660008343E3408341434083408343E34083422
:101076000834003450343034003400340834083432
:1010860008340834083400346034603400340034E2
:10109600203410340834043402343E345134493494
:1010A60045343E34043402347F3400340034423450
:1010B6006134513449344634223441344934493454
:1010C60036341834143412347F341034273445340B
:1010D6004534453439343E3449344934493432345C
:1010E600013401347134093407343634493449340F
:1010F6004934363426344934493449343E3400348C
:101106003634363400340034003456343634003441
:101116000034083414342234413400341434143482
:10112600143414341434003441342234143408345E
:10113600023401345134093406343E3441345934CE
:1011460055345E347E340934093409347E347F34B0
:1011560049344934493436343E34413441344134D7
:1011660022347F344134413441343E347F3449346F
:101176004934493441347F3409340934093401345B
:101186003E344134413449343A347F3408340834E7
:1011960008347F34003441347F34413400343034F1
:1011A6004034403440343F347F34083414342234DD
:1011B60041347F3440344034403440347F34023448
:1011C6000C3402347F347F340234043408347F34E0
:1011D6003E344134413441343E347F340934093499
:1011E600093406341E342134213421345E347F34EC
:1011F60009340934093476342634493449344934B7
:101206003234013401347F34013401343F34403404
:10121600403440343F341F342034403420341F34AB
:101226007F342034103420347F34413422341C344B
:1012360022344134073408347034083407346134B6
:10124600513449344534433400347F344134003416
:1012560000340234043408341034203400340034AA
:1012660041347F340034043402340134023404340B
:101276004034403440344034403400340134023485
:1012860004340034203454345434543478347F34A1
:1012960044344434443438343834443444344434A0
:1012A600443438344434443444347F343834543445
:1012B600543454341834043404347E340534053438
:1012C60008345434543454343C347F3408340434AD
:1012D60004347834003444347D34403400342034CB
:1012E600403444343D3400347F341034283444349C
:1012F6000034003441347F34403400347C340434C8
:101306007834043478347C3408340434043478343F
:10131600383444344434443438347C341434143447
:101326001434083408341434143414347C3400343B
:101336007C34083404340434483454345434543437
:101346002034043404343F34443444343C3440348C
:10135600403420347C341C342034403420341C3453
:101366003C344034303440343C3444342834103433
:10137600283444340C345034503450343C344434DF
:10138600643454344C3444340034083436344134F0
:101396004134003400347F34003400344134413465
:1013A600363408340034023401340234043402344E
:1013B6001E3421346134213412343D3442345234E3
:1013C600523475343C344334423443343C343C3434
:1013D6004134403441343C34003442347F34423466
:1013E6000034463449346934493431341C342234A7
:1013F6006234223410340D345234523452343D3473
:10140600383446344434463438343C344134403439
:1014160021347C34003444347C3440340034243465
:101426002A346A342A341034413442344334C734BB
:101436004434453446344734D03448344934DD34B2
:101446004A344B344C344D344E344F34D634503405
:1014560052345334DE3454345534DC34563459342F
:101466005A342034613462346334E7346434653486
:1014760066346734F0346834FD3469346A346B3466
:101486006C346D346E346F34F634703472347334B5
:10149600FE3474347534FC34763479347A342E342C
:1014A6002C343A343B3421343F345B347B34283497
:1014B60029347D345D343C343E3440342B342D3471
:1014C6002A342F3423342534273422342F345C3401
:1014D6000034473445344E34C73420344D34553403
:1014E6004334DD3454344C344534523400344734B8
:1014F60065346E34E73420344D34753463346934DE
:1015060074346C346534723400344E346F346B3456
:101516006934613420343534313431343034003474
:101526004C344334443420345434453453345434E2
:04153600DD3400346C
:020000040001F9
:04000E00E2FFFFDF2F
:00000001FF
