:040000002DEF00F0F0
:10000800FACF06F0FBCF07F0E1CF08F0E2CF09F016
:10001800F6CF0AF0F7CF0BF0F8CF0CF0F5CF0DF0D4
:100028001EEED2F0F2BC9DA003D09EB0D1EC45F0FC
:100038000DC0F5FF0CC0F8FF0BC0F7FF0AC0F6FFB4
:1000480009C0E2FF08C0E1FF07C0FBFF06C0FAFFD6
:1000580011001EEE9DF00EEF42F002019F6BDE0EC6
:10006800F66EF70EF76E000EF86E0900F5CF83F204
:100078000900F5CF84F20900F5CF85F20A00F5CF23
:1000880086F2876B886B896B8A6B72EC46F0BE0EC2
:100098000E6E7F0E0F6EE7EC46F0F28EF28C0201C8
:1000A800A06B050EA06501D01AD0010E8CA0000E21
:1000B800FF0A0101DD6F8C50DD19FE0BDD198C6E16
:1000C800030E0101DE6F080EDD6F770EE82EFED7F6
:1000D800DD2FFCD7DE2FFAD70201A02BE2D7DDEC0B
:1000E80046F049EC3FF0010E166E1C0E176EFF0E1F
:1000F800186E010E91EC45F0A60E1B6EFE0E1C6EDE
:1001080030EC37F06A0E476E8D0E486EA20E020173
:10011800F56F8D0EF66F940E106EFD0E116E5EEC7F
:1001280043F0990E0201936FFF0E946F2D0E00019C
:10013800B46FFF0EB56F93C2B6F094C2B7F0030E5A
:10014800B96F590EB86FA1EC46F03E0EE66E0BEC97
:1001580043F053EC09F042EC3DF088EC09F060EF15
:1001680008F072EC08F045EC33F02D502E1009E041
:10017800E50E7BEC08F045EC33F02D502E10E5E051
:100188000ED002019F51E76FE86BE96BEA6B87C2FB
:10019800B5F288C2B6F289C2B7F28AC2B8F2710E55
:1001A8000001F3EC08F0000EDF6F010EDE6F0201B4
:1001B800E751A8EC3EF00201A96FA95107E07CECD9
:1001C80009F0B7EC09F0A1EC46F0BFD7E7C29FF2FF
:1001D800B529876F000EB621886F000EB721896F89
:1001E800000EB8218A6FE30E0001B46FFE0EB56FE2
:1001F800E7C2B6F0B76BB5C2B8F0B6C2B9F0B7C2CD
:10020800BAF0B8C2BBF0A1EC46F0710E0201E56F7E
:100218000A0EE66FA56BA66BA76BA86BA2EC08F09D
:1002280058EC35F0100E0201E527000EE623100EFB
:100238002BEC09F0A851A71188E1020EA65D85E212
:10024800EDD783D772EC08F045EC33F02D502E1023
:1002580001E17BD77CEC09F00201E75115EC31F0A4
:10026800B3EC09F0A1EC46F070D772EC08F045EC5D
:1002780033F02D502E1001E168D7010E19EC09F06A
:100288001DEC1AF0000908E1740E0001B46FFE0EAF
:100298008AEC08F0A1EC46F0030E19EC09F01DEC0D
:1002A8001AF0000908E15A0E0001B46FFE0E8AEC3C
:1002B80008F0A1EC46F00A0E0001D86FA90ED96F1C
:1002C800020EDA6F0201E7511DEC1AF0000909E18C
:1002D8000A0E0001B46FFF0EB56FB7EC09F0A1EC80
:1002E80046F00B0E99EC08F01DEC1AF000090CE131
:1002F800DD0E106EFF0E116E5EEC43F0BCEC08F0E4
:10030800B5EC08F058EC35F00C0E99EC08F01DEC43
:100318001AF000090CE1D70E106EFF0E116E5EEC9C
:1003280043F0BCEC08F0B5EC08F058EC35F00D0ED5
:1003380099EC08F01DEC1AF000090FE1E30E106EBD
:10034800FF0E116E5EEC43F0BCEC08F0286A040E58
:10035800276E6CEC09F058EC35F00E0E99EC08F0AD
:100368001DEC1AF0000901E0F0D6650E106EFF0EC4
:10037800116E5EEC43F00201AC6BAD6BAD5105E163
:10038800400EAC5D01E3E1D601D0DFD6710EAC259D
:10039800216E0A0EAD21226EACC223F0ADC224F04C
:1003A800256A266AB5EC08F058EC35F0100E020103
:1003B800AC27000EAD23E2D7E5C2D9FFFFEC08F069
:1003C800640A01E1CED60D0A01E13CD71A0A01E11F
:1003D8004CD7BBD672EC08F045EC33F02D502E10FC
:1003E80001E1B3D6710E0201E725E56F0A0EE82197
:1003F800E66FE7C2A5F2E8C2A6F2E9C2A7F2EAC22E
:10040800A8F2AF6B200EAE6F0FD0A2EC08F058EC3C
:1004180035F00201AE07D8A0AF07100EE527000E91
:10042800E623100E2BEC09F0AE51AF1101E18DD689
:10043800ECD772EC08F045EC33F02D502E1001E1AA
:1004480084D6E50E7BEC08F045EC33F02D502E10E9
:1004580010E0EBEC08F0B5C2DFFF70EC09F0E50E38
:100468007BEC08F045EC33F02D502E1001E16DD6F1
:10047800F0D7710E0001B46FFF0E94EC09F0EBECAD
:1004880008F0DF500001B86FB96BA1EC46F053ECEF
:1004980009F042EC3DF088EC09F0E5C2D9FFE6C26C
:1004A800DAFF2E0EDE1801E150D6E5C2D9FFE6C20A
:1004B800DAFF200EDF6003D070EC09F0DAD7E50E22
:1004C8007BEC08F045EC33F02D502E1005E0EBECFA
:1004D80008F0B5C2DFFFF0D7F50E106EFF0E116EF3
:1004E8005EEC43F0C6D772EC08F045EC33F02D50C3
:1004F8002E1001E12AD6E50E7BEC08F045EC33F02E
:100508002D502E1001E121D6E50E3DEC09F045EC09
:1005180033F02D502E1001E118D65BEC09F0F3EC06
:1005280008F0A1C2DEF0DF6B0201E751A8EC3EF053
:10053800B3EC09F0A1EC46F008D672EC08F045ECF3
:1005480033F02D502E1001E100D6E50E7BEC08F0BB
:1005580045EC33F02D502E1001E1F7D5E50E3DECBA
:1005680009F045EC33F02D502E1001E1EED55BEC8F
:1005780009F0D86F0A0ED96FB5C2DAF0B6C2DBF04F
:10058800B7C2DCF0B8C2DDF0A1C2DEF0DF6B020159
:10059800E75159EC3AF0B3EC09F0A1EC46F0D5D5A7
:1005A80072EC08F045EC33F02D502E1001E1CDD55A
:1005B800AEEC09F0E7C210F0E8C211F0BFEC09F0A8
:1005C800A7EC45F0C2D5E5C2D9FFFFEC08F0640AF4
:1005D80001E100D7010A01E12CD7030AE1E0140A7E
:1005E80082E0050AAAE0B1D5E50E7BEC08F045ECFF
:1005F80033F02D502E1002E131EC09F0400E0101CC
:100608004D6F080E4E6F430E4F6FFD0E506FB5C203
:1006180051F127EC40F035EC43F097D5E54BE62B4C
:1006280083EC08F0FBE09FEC09F0B50E01014F6F79
:10063800020E8EEC09F0C5EC2AF00201B46FB45139
:1006480004E0B45135EC43F080D5900E0001B46F4E
:10065800FB0EB56FB2C2D9FFB3C2DAFFDF50030B8E
:100668000101DD6FDE6B830EDD25D96E020EDE2102
:10067800DA6EDF500001B66FB76BE7EC08F094EC68
:1006880008F0DECFDFF1DDCFE0F10101DF51E16FEE
:10069800E051E26FE36BE46B090ED890E137E23783
:1006A800E337E437E82EF9D7E1C1B8F0E2C1B9F091
:1006B800E3C1BAF0E4C1BBF0020120EE02F094EC11
:1006C80008F0DF500001BC6FBD6B020120EE07F09F
:1006D80094EC08F0DECFBEF0DDCFBFF020EE19F0CD
:1006E80094EC08F0DECFC0F0DECFC1F0DECFC2F070
:1006F800DECFC3F020EE15F094EC08F0FE0EDE24F9
:100708000001C46FFF0EDE20C56FFF0EDE20C66F2E
:10071800FF0EDE20C76F020120EE1DF094EC08F0FA
:10072800DECFC8F0DECFC9F0DECFCAF0DECFCBF027
:1007380020EE21F094EC08F0DECFCCF0DECFCDF047
:10074800DECFCEF0DECFCFF020EE25F094EC08F02F
:10075800DECFD0F0DECFD1F0DECFD2F0DECFD3F0D7
:1007680020EE29F094EC08F0DECFD4F0DECFD5F0FF
:10077800DECFD6F0DECFD7F0A1EC46F00201F26B67
:10078800F16BF1C2F3F2F2C2F4F2F3C2EBF2F4C28B
:10079800ECF2ED6BEE6BE5C2E6FFE6C2E6FFE3ECDA
:1007A8003CF03B500201B46FB45104E0B45135EC55
:1007B80043F0CBD4440E0001B46FFD0EB56FF3C205
:1007C800B6F0F4C2B7F0EBC2B8F0ECC2B9F0EDC2C3
:1007D800BAF0EEC2BBF0F1C2BCF0F2C2BDF0020149
:1007E80020EE15F094EC08F0FE0EDE24216EFF0ECC
:1007F800DE20226EFF0EDE20236EFF0EDE20246E2A
:1008080020EE09F094EC08F062EC09F0D8900101B0
:10081800DE31E06FDD31DF6FDFC125F0E0C126F0AA
:10082800276A286A87EC43F021C0BEF022C0BFF0D7
:1008380023C0C0F024C0C1F0E7EC08F094EC08F045
:10084800DECFE1F1DDCFE2F1D8900101E231E46FD2
:10085800E131E36FE3C121F0E4C122F0236A246AA5
:10086800B5C225F0B6C226F0B7C227F0B8C228F044
:1008780087EC43F021C0C2F022C0C3F023C0C4F00B
:1008880024C0C5F0A1EC46F060D4E54BE62B83EC20
:1008980008F0FBE0B90E0101736F020E746FE5C238
:1008A80075F1E6C276F1DDEC39F00201B46FB451AE
:1008B80004E0B45135EC43F048D4B16BB06BB0C22E
:1008C800ACF2B1C2ADF2ACC2E7F2ADC2E8F2E96B8C
:1008D800EA6BB90E0101696F020E6A6F870E6B6FC2
:1008E8000D0E6C6F6EEC40F00201B46FB45101E074
:1008F800CAD02DEE9DF0DF5001E1C5D02DEE8FF06E
:10090800DFA803D0B04BB12B0CD0AC4BAD2B2DEEE8
:1009180087F0DE50E727DE50E823DE50E923DD507C
:10092800EA232DEE8FF0DFBA03D0966B2D0E02D09E
:10093800966B410E956F2DEE8FF0DFB403D0986B58
:100948002D0E02D0986B530E976F2DEE8FF0DFB2FD
:1009580003D09A6B2D0E02D09A6B480E996F2DEE2C
:100968008FF0DFB003D09C6B2D0E02D09C6B520E23
:100978009B6F2DEE8FF0DFB803D09E6B2D0E02D04B
:100988009E6B440E9D6FC00E0001B46FFD0EB56FD7
:100998009DC2B6F09EC2B7F09BC2B8F09CC2B9F037
:1009A80099C2BAF09AC2BBF097C2BCF098C2BDF027
:1009B80095C2BEF096C2BFF02DEE8BF062EC09F046
:1009C800090E0101DF6FD890DE33DD33DF2FFBD74F
:1009D800BC0EDD250001C06F070E0101DE210001FC
:1009E800C16F2DEE8BF0DECFE0F1DDCFE1F1050E2A
:1009F8000101E26FD890E133E033E22FFBD70F0E0D
:100A0800E0150001C26FC36B2DEE8BF0DECFE3F172
:100A1800DDCFE4F11F0E0101E3150001C46FC56BC2
:100A28002DEE8DF0DECFE5F1DDCFE6F10B0E010105
:100A3800E76FD890E633E533E72FFBD7E5C1C6F07B
:100A4800E6C1C7F02DEE8DF0DECFE8F1DDCFE9F19C
:100A5800050EEA6FD890E933E833EA2FFBD73F0E4B
:100A6800E8150001C86FC96B87CDCAF088CDCBF0F7
:100A780089CDCCF08ACDCDF09D0ECE6F0D0ECF6F07
:100A8800A1EC46F026D7EC0E0001B46FFD0EB56F51
:100A9800ACC2B6F0ADC2B7F0E7C2B8F0E8C2B9F080
:100AA800E9C2BAF0EAC2BBF0B0C2BCF0B1C2BDF054
:100AB800A1EC46F09FEC09F0E70E01014F6F020E22
:100AC8008EEC09F0C5EC2AF0000902E0A9EF00F06D
:100AD800CF0E0001B46FFE0EB56F75DB21DBEEDBC8
:100AE800DDC121F0DEC122F0236A246AE7C225F0C5
:100AF800E8C226F0E9C227F0EAC228F087EC43F002
:100B0800090ED8902136223623362436E82EF9D716
:100B180021C0B6F022C0B7F023C0B8F024C0B9F0A5
:100B2800A1EC46F0A9EF00F0D9DA45EC33F02D50EE
:100B38002E1002E1A9EF00F003D00201E54BE62BED
:100B4800DEDAFBE05EDBE7C28BF188EC15F035EC12
:100B580043F0A9EF00F087DB59EC44F035EC43F0A3
:100B6800A9EF00F0BBDA45EC33F02D502E1002E16E
:100B7800A9EF00F0FC0E01013E6F030E3F6FE7C2C4
:100B880040F1E8C241F1E9C242F1EAC243F103ECA3
:100B980013F00201B46FB45135EC43F00201B451C3
:100BA80002E0A9EF00F0F70E0001B46FFE0EB56F7A
:100BB8000CC4B6F00DC4B7F00EC4B8F00FC4B9F049
:100BC8000CC4BAF00DC4BBF00EC4BCF00FC4BDF029
:100BD800A1EC46F0A9EF00F081DA45EC33F02D5096
:100BE8002E1002E1A9EF00F038DBEF6BF06B20D09C
:100BF800EA51E91103E1020EE85D04E3B8DBD8909D
:100C080071DB01D0D7DABDDA91DBB00E206F020EAE
:100C1800216F7BEC10F00201B46FB45104E0B451C1
:100C280035EC43F007D0F7DA05E1B151AF1902E12D
:100C38004ADBDEE10201EF51F01105E18B6B8C6BB1
:100C48008D6B8E6B0BD0A7DAA0EC3DF00EC08BF24B
:100C58000FC08CF210C08DF211C08EF2390E000157
:100C6800B46FFE0E53DA8BC2BAF08CC2BBF08DC2E1
:100C7800BCF08EC2BDF0A1EC46F0A9EF00F02EDA70
:100C880045EC33F02D502E1002E1A9EF00F00CC412
:100C9800A5F20DC4A6F20EC4A7F20FC4A8F23CD068
:100CA800E85103E1100EE75D0AE3AF6B100EAE6F7B
:100CB800F00EE727FF0EE823E923EA2301D07ADACA
:100CC80060DA34DBAE0E206F020E216F7BEC10F081
:100CD8000201B46FB45105E0B45135EC43F0A9EF0B
:100CE80000F0AE51AF1102E1A9EF00F0710E216ED4
:100CF8000A0E226EA5C223F0A6C224F0A7C225F0D0
:100D0800A8C226F0AEC227F0AFC228F0E1DA58EC4C
:100D180035F0100E02019BDA0201D5DA02E1A9EFE3
:100D280000F0BED7DBD945EC33F02D502E1002E190
:100D3800A9EF00F0E50EDBD945EC33F02D502E106D
:100D480002E1A9EF00F006DBB5C210F0B6C211F05F
:100D580012DBA7EC45F081DAEF6BF06B24D0EA5197
:100D6800E91103E1020EE85D04E301DBD890BADA89
:100D780001D020DAFC0E01013E6F030EBFDAAEC2CD
:100D880042F1AFC243F1E1DAC3EC0DF00201B46FF6
:100D9800B45104E0B45135EC43F007D03CDA05E136
:100DA800B151AF1902E18FDADAE10201EF51F01126
:100DB80005E18F6B906B916B926B0BD0ECD9A0EC2B
:100DC8003DF00EC08FF20FC090F210C091F211C02A
:100DD80092F2150E0001B46FFE0E98D98FC2BAF0C8
:100DE80090C2BBF091C2BCF092C2BDF0A1EC46F03B
:100DF800A9EF00F0E54BE62B82D9FCE048DA7BEC62
:100E080045F00EC0AAF20FC0ABF20201AA51AB1115
:100E180002E1A9EF00F035DA11DAFEE0E5C287F168
:100E2800E6C288F1AAC289F1ABC28AF140EC28F087
:100E380035EC43F0A9EF00F0E54BE62B60D9FCE078
:100E4800E5C273F1E6C274F100EC36F035EC43F01C
:100E5800A9EF00F0FC0E0001FC6F030EFD6FF4EC2F
:100E68002CF035EC43F0A9EF00F0E54BE62B47D921
:100E7800FCE0E5C287F1E6C288F19BEC25F035EC91
:100E880043F0A9EF00F0E54BE62B39D9FCE0FFD998
:100E98007BEC45F00EC0AAF20FC0ABF20201AA51DA
:100EA800AB1102E1A9EF00F0ECD9C8D9FEE0580E69
:100EB8000001B46FFF0EB56FE5C2B6F0E6C2B7F039
:100EC800A1EC46F09ED9010E8B6F88EC15F038DA4C
:100ED8000BEC43F00201B45105E0B45135EC43F09A
:100EE800A9EF00F03D0E0001B46FFF0EB56FAAC266
:100EF800B6F0ABC2B7F0A1EC46F01E0E0101876F49
:100F0800060E886FAAC289F1ABC28AF10A0E8B6FEE
:100F180088EC15F015DA0BEC43F00201B45108E047
:100F2800B45135EC43F09FD959EC44F0A9EF00F0E7
:100F38007C0E0001B46FFF0EB56FA1EC46F0020104
:100F4800E76BE86BE96BEA6B1CD9020E1F6F1E6B2F
:100F5800AC0E206F020E216F7BEC10F00201B46F13
:100F6800B4511FE1AC51AD111CE01E0E01013E6FE2
:100F7800060EC4D9ACC242F1ADC243F1E6D9C3EC06
:100F88000DF00201B46FB051E727B151E823000E0C
:100F9800E923EA23B45105E1AC51B05DAD51B15933
:100FA800D3E2BB0E0001B46FFE0EBAD9E9C2B8F0A5
:100FB800EAC2B9F0A1EC46F056D959EC44F01E0E3D
:100FC800226F060E236F59EC44F0A9EF00F0E5C23A
:100FD800D9FF11D9630A01E1BED5070A01E14FD64D
:100FE800010A01E1BFD50C0A02E1F8EF02F0020A9A
:100FF80001E13DD7070A01E14AD4020A01E1FCD622
:10100800010A01E191D51D0A01E1E6D5010A02E1D3
:1010180014EF03F0060A01E111D7030A01E11AD718
:10102800010A01E17FD60F0A01E12FD7A9EF00F0ED
:1010380055D845EC33F02D502E1022E0E7C24EF083
:10104800E8C24FF04BD845EC33F0E7C251F046D830
:1010580045EC33F0E7C250F041D845EC33F0E7C235
:101068004BF03CD845EC33F0E7C24AF037D845ECB2
:1010780033F02D502E1002E1A9EF00F0E7C249F03D
:101088008D0E0001B46FFE0EB56F4EC0B6F04FC0A6
:10109800B7F051C0B8F0B96B50C0BAF0BB6B4BC0D9
:1010A800BCF0BD6B4AC0BEF0BF6B49C0C0F0C16B9D
:1010B800A1EC46F0A9EF00F0E5C2D9FF9CD8620A7E
:1010C80002E1E7EF02F0060A02E1E0EF01F0020AAE
:1010D80001E17DD7120AACE0A9EF00F0E50E2D6E14
:1010E800020E2E6EE70E2F6E020E306E12002D6E5F
:1010F800020E2E6EB50E2F6E020E306E1200E5C275
:10110800D9FFE6C2DAFF200EDE181200B56FB5C2AD
:10111800B6F0B6C2B7F0B7C2B8F0B8C2B9F01200AC
:10112800B251D926B351DA2212000001D86F710EDC
:10113800D96F0A0EDA6F0201E7511200E5C221F0F9
:10114800E6C222F0A5C223F0A6C224F0A7C225F069
:10115800A8C226F0286A100E276E2A6A010E296E88
:10116800010C286A100E276E2A6A010E296E010CDE
:10117800710E216E0A0E226E236A246A256A266A77
:101188001200FC0E01011A6F030E1B6F710E1C6F0B
:101198000A0E1D6F1200B5C20EF0B6C20FF0B7C22C
:1011A80010F0B8C211F0EFC212F0F0C213F0146AD6
:1011B800156A1200E7C2AEF2E8C2AFF2E76BE86B5D
:1011C800E96BEA6B1200020120EE09F01200710EC1
:1011D8000201E725D96E0A0EE821DA6E1200D86FEF
:1011E8000A0ED96FB5C2DAF0B6C2DBF0B7C2DCF0CE
:1011F800B8C2DDF01200E6C2DAFFE54BE62BDF509D
:101208001200FC0E0101876F030E886FE5C289F199
:10121800E6C28AF11200B051B527B151B623000ECB
:10122800B723B823B051AE1912000001D86FB50E1C
:10123800D96F020EDA6F0201E7511200AA4BAB2BED
:10124800AAC2D9FFABC2DAFF200EDE181200A5270A
:10125800000EA623A723A823000C0201B56BB66BCA
:10126800B76BB86B1200FC0E0101226F030E236FDF
:1012780012002D6E020E2E6EA10E2F6E020E306E13
:101288001200AAC2D9FFABC2DAFFDF6A1200E5C2B8
:101298000EF0E6C20FF0116A200E106E200CCA0E76
:1012A800106E030E116E136A320E126E320CBD0EE2
:1012B8000001B46FFF0EB56F710E1200DECFDDF1C5
:1012C800DDCFDEF11200E751E811E911EA11120051
:1012D8002A6A010E296E010CE72B000EE823E92388
:1012E800EA23000CFE0EE827FF0EE923EA23FF0C91
:1012F800B60E0001B46FFF0EB56F12003F6F710E8E
:10130800406F0A0E416F1200CA0E0201E56F030E0C
:10131800E66F1200506FB20E516F020E526F12003C
:10132800B56FE7C2B6F0E8C2B7F01200AEC21EF160
:10133800AFC21FF11200E5C24DF1E6C24EF1120034
:101348000201B46F0A0EE66E0A0CB00E446F020E6C
:10135800456F1200710E0E6E0A0E0F6E120000011C
:10136800B66FB76B1200A9C2B6F0B76B1200020EC7
:10137800AF6FAE6B020C020E136E126A020CF0DB3A
:10138800DE6ADD6A06C10EF007C10FF05FEC39F0C6
:101398000EC033F10FC034F1010134BF0B0CD890EB
:1013A8003335D96E3435DA6EF10ED926010EDA22CC
:1013B800DECF4BF1DDCF4CF14B514C1101E10C0C60
:1013C800CFDB4BC1DEFF4CC1DDFF0A91BBDBDF5039
:1013D8000FE020EE01F063DBDF50CBEC46F00101BB
:1013E8003B6F3BB105D00A51D8A43BA5000C0A0CB1
:1013F800A9DBDF6A20EE01F052DB33C1DFFF20EE0C
:1014080001F04DDBDF5015EC31F001013B6F3BB1D2
:10141800030C0A5102E03BB50A0C446B456B466B62
:10142800476B73DBB3EC3BF001014A6F020E4A19BC
:101438007BE1486B496B495149E1040E485D46E23E
:1014480048C10BF149C10CF10B3B0C3BF00E0C17DA
:101458000B510F0B0C13F00E0B174BC10DF14CC1B8
:101468000EF10B510D270C510E23EF0E0D252D6F8C
:10147800010E0E212E6F20EE04F02D51D9262E518B
:10148800DA22DF5005E1236B246B256B266B10D025
:10149800080E2D250E6E000E2E210F6E43EC42F025
:1014A8000EC023F10FC024F110C025F111C026F1A0
:1014B800130E010111DB23C1DEFF24C1DEFF25C1AC
:1014C800DEFF26C1DEFF484B492BB5D7486B496B79
:1014D8004851491103E04807D8A04907130EFCDA20
:1014E800DECF44F1DECF45F1DECF46F1DECF47F166
:1014F800445145114611471105E1000E286F030EAE
:10150800276F06D002DBB3EC3BF00101276F286B95
:1015180027C14AF1010E4A6507D0484B492B49516A
:1015280003E1040E485DDAE3040E4A1901E1010CF7
:10153800010E4A6501D00D0C3C0EC8DA47EC45F0A7
:10154800020E3A18391001E00D0C470E0101BEDAFF
:1015580047EC45F039C040F13AC041F10101426B16
:10156800436B40514111421143110CE1550EDADA37
:1015780043EC42F00EC040F10FC041F110C042F1FF
:1015880011C043F1010120EE19F089DA40C1DEFFF4
:1015980041C1DEFF42C1DEFF43C1DEFF20EE41F064
:1015A8007EDA00EE02F0D8DAEA22DFCFEFFF20EE93
:1015B80002F075DADE0407E020EE02F070DA020EBF
:1015C800DE1801E00D0C40C121F041C122F042C1FA
:1015D80023F043C124F020EE02F061DADF50C5DACF
:1015E80087EC43F021C040F122C041F123C042F111
:1015F80024C043F1010120EE3EF051DADF500B6FB9
:101608000C6B20EE09F04BDA0BC1DEFF0CC1DDFFDD
:1016180020EE09F044DADE50DE10D8B40D0C20EECE
:1016280009F03DDA94DA0D690E6920EE09F037DA2F
:10163800DECF0FF1DDCF10F10D510F270E51102322
:101648000B510F170C5110170F51101101E00D0C11
:10165800420E3CDA47EC45F071DA21DA22EC21F04F
:1016680020EE07F01CDADF500B6F0F0E0B1701E0AE
:101678000D0C440E2BDA47EC45F039C037F13AC06F
:1016880038F10101396B3A6B3751381139113A1178
:101698000CE1510E47DA43EC42F00EC037F10FC0AF
:1016A80038F110C039F111C03AF13F0E01010EDADC
:1016B80047EC45F039C035F13AC036F101013551F2
:1016C800361101E10D0C20EE07F0E9D940DA040EDD
:1016D8000D6FD8900C330B330D2FFBD735510B25DD
:1016E8000E6F36510C210F6F106BD8B0102B116B89
:1016F80040510E252F6F41510F21306F425110215B
:10170800316F43511121326F2F51375D30513859A4
:101718003151395932513A5901E20D0C2F51375D87
:101728000E6E305138590F6E31513959106E325191
:101738003A59116E20EE09F0B2D909DA0BC112F04C
:101748000CC113F0146A156A2DEC41F00EC03CF17F
:101758000FC03DF110C03EF111C03FF101013C51F5
:101768003D113E113F1101E10D0C4A6B03DAFF0EEA
:101778003E590F0E3F5902E2030E4A6F3F513E1188
:1017880004E1F8D902E2020E4A6F3F513E1107E127
:10179800F60E3C5D0F0E3D5902E2010E4A6F4A51AA
:1017A80001E10D0C020E3C250B6F000E3D210C6F64
:1017B800000E3E210D6F000E3F210E6F20EE15F03A
:1017C8006ED99AD920EE1DF06AD944C1DEFF45C111
:1017D800DEFF46C1DEFF47C1DEFF355144250B6FF2
:1017E800365145210C6F000E46210D6F000E472122
:1017F8000E6F20EE21F053D97FD92F5144250B6F5E
:10180800305145210C6F315146210D6F325147211E
:101818000E6F20EE29F043D96FD9030E4A192CE137
:101828005B0E54D947EC45F039503A1001E00D0CE5
:1018380085D935D9DE50DE1001E00D0C5D0E72D968
:1018480043EC42F0010120EE25F029D92DD920EEF4
:1018580015F025D932D9020ED8900B370C370D3731
:101868000E37E82EF9D70BC129F10CC12AF10DC1A9
:101878002BF10EC12CF15DD020EE07F010D9DE500F
:10188800DE1001E10D0C20EE21F009D916D94051E6
:101898000B250F6F41510C21106F42510D21116F13
:1018A80043510E21126F20EE25F0F9D80FC1DEFF4B
:1018B80010C1DEFF11C1DEFF12C1DEFF020E4A19A0
:1018C8002BE020EE15F0EBD8F8D8010E0B150F6FB2
:1018D800106B116B126B20EE15F0E1D8DECF21F002
:1018E800DECF22F0DECF23F0DECF24F0030E3DD989
:1018F80087EC43F0D890243223322232213201017E
:101908000F512124296F105122202A6F11512320B1
:101918002B6F125124200CD020EE15F0C0D8CDD852
:10192800D8900B35296F0C352A6F0D352B6F0E3576
:101938002C6FFF0E29250B6F010E2A210C6F000E4C
:101948002B210D6F000E2C210E6F0A0E05D0D8909A
:101958000E330D330C330B33E82EF9D720EE19F084
:101968009ED80B51DE5C0C51DE580D51DE580E51DD
:10197800DE5801E20D0C20EE11F091D8EBEC2CF0C2
:10198800DD52DD5200EE0DF0E7D8DAEC17F020EE6C
:1019980004F085D8800EDF6E030E4A196BE1610EE4
:1019A80095D847EC45F039043A1064E14BC1F2F0A0
:1019B8004CC1F3F0010E010144250001F46F000E43
:1019C800010145210001F56F000E010146210001CA
:1019D800F66F000E010147210001F76FFBEC3EF0A6
:1019E800000948E1010120EE04F059D8DF6A2F0E02
:1019F8004B25396E020E4C213A6E47EC45F0550ED8
:101A0800391838E1AA0E3A1835E1310E01018AD8A1
:101A180043EC42F0520E0E182DE1520E0F182AE137
:101A2800610E101827E1410E111824E1150E01016D
:101A38007FD843EC42F0720E0E181CE1720E0F189C
:101A480019E1410E101816E1610E111813E1190E73
:101A580001016ED843EC42F0010120EE11F01FD8CD
:101A680023D81D0E65D843EC42F0010120EE0DF09D
:101A780016D81AD867D84AC1DFFF0101EF4BF02BFF
:101A880020EE05F00CD8EFC1DEFFF0C1DDFF20EE3F
:101A98000BF005D8000EDE6E030EDD6E000C4B5108
:101AA800D9264C51DA2212000EC0DEFF0FC0DEFF2D
:101AB80010C0DEFF11C0DEFF1200DECF0BF1DECF5B
:101AC8000CF1DECF0DF1DECF0EF112004B25396E91
:101AD800000E4C213A6E12000B6F010E0C6FD8905D
:101AE8004835D96E4935DA6ED890D936DA360B5181
:101AF800D9260C51DA2212000BC1DEFF0CC1DEFF21
:101B08000DC1DEFF0EC1DEFF12004BC100F14CC15A
:101B180001F144C102F145C103F146C104F147C1D5
:101B280005F112004B250E6E000E4C210F6E1200AF
:101B38004B250E6E020E4C210F6E1200010120EE95
:101B480007F012004BC1D9FF4CC1DAFF1200DECFFB
:101B58000BF1DDCF0CF112004B51E9264C5112006C
:101B680008C1D9FF09C1DAFF1200256E266A276A63
:101B7800286A1200F60E3C5DFF0E3D59120040C166
:101B880057F141C158F1A5DADE6ADD6A3EC110F0AD
:101B98003FC111F0670E126E010E136E96EC3FF006
:101BA8000101566F565107E120EE0FF04DDADF5074
:101BB800566F565102E05651120020EE0EF044DAEC
:101BC800DFA2070C20EE10F03FDA73DAEA22EECF3C
:101BD8004AF1EECF4BF1EECF4CF1EECF4DF1425141
:101BE8004A254E6F43514B214F6F000E4C21506FC9
:101BF800000E4D21516FDE504E5DDE504F59DE50C4
:101C08005059DE50515901E315D220EE10F01CDA7C
:101C180056DA461D426F471D436F0CD220EE10F076
:101C280013DAFF0EDE14466F010EDE14476F000E46
:101C3800DE14486F000EDE14496F465147114811F3
:101C4800491101E08DD120EE10F0FED9DECF46F12A
:101C5800DECF47F1DECF48F1DECF49F10A0E05D0DD
:101C6800D8904933483347334633E82EF9D74A6981
:101C78004B6920EE09F006DADECF4CF1DDCF4DF1ED
:101C88004A514C274B514D2346514C15596F4751DA
:101C98004D155A6F59114FE120EE10F0D5D9E3D9FF
:101CA80013E120EE06F0D0D9DECF5DF1DECF5EF194
:101CB800DECF5FF1DECF60F107DA16E10FDAF0EC84
:101CC80026F02AEC1CF008D009DA20EE14F0BCD972
:101CD80014EC24F02AEC1CF021C15DF122C15EF164
:101CE80023C15FF124C160F1EFD901E1A7D15D05FE
:101CF8005E115F11601105E120EE0FF0A5D9FDEF2F
:101D080012F05D290BE15E2909E15F2907E16029ED
:101D180005E120EE0FF098D900EF13F020EE14F053
:101D280093D9BED920EE06F08FD99DD904E120EED3
:101D380006F08AD9B5D920EE0EF086D9DFAE1ED0CE
:101D4800220E3E25E5EC12F03F21D7EC12F07CD9AB
:101D5800DECFDAF0DECFDBF0DECFDCF0DECFDDF099
:101D68000001C4EC2DF08ED9DF5059EC3AF000098F
:101D780001E0E8D083D968D97F0EDF1667C12DF05E
:101D880068C12EF020EE14F05FD9CEEC12F0FEEC14
:101D98003DF02DC063F12EC064F12FC065F130C055
:101DA80066F10101635164116511661101E1A4D75F
:101DB800595163275A516423000E6523662342C193
:101DC80046F143C147F1090E486FD890473346336F
:101DD800482FFBD746C15BF147C15CF15B515C11F1
:101DE80001E184D05B515925466F5C515A21476FF8
:101DF80020EE09F047D94651DE5C4751DE580AE229
:101E080020EE09F03FD95BD95951465D5B6F5A51B5
:101E180047595C6F57C1D8F058C1D9F063C1DAF09F
:101E280064C1DBF065C1DCF066C1DDF05BC1DEF0EA
:101E38005CC1DFF020EE01F025D9DF5059EC3AF013
:101E4800000901E07FD001015B51466F5C51476F8B
:101E5800486B496B20EE18F0F7D8DECF4AF1DECF99
:101E68004BF1DECF4CF1DECF4DF163514A5D4E6F41
:101E780064514B594F6F65514C59506F66514D59CC
:101E8800516F46514E5D47514F594851505949512C
:101E980051591FE2220E3E250E6E000E3F210F6E95
:101EA80020EE18F0D1D80BD96351465F6451475BD7
:101EB800090E19D9E82EFDD746515725106E4751FE
:101EC8005821F3EC12F018EC44F0D8D8BDD87F0EA6
:101ED800DF165BC146F15CC147F1090E04D9E82E53
:101EE800FDD746C161F147C162F16DD020EE18F00F
:101EF800ABD86351DE1809E16451DE1806E165517B
:101F0800DE1803E16651DE181FE020EE0AF09CD8C7
:101F1800D0D89FD819E2220E3E25DDEC12F03F21E1
:101F28000001D96F63C1DAF064C1DBF065C1DCF090
:101F380066C1DDF09EEC12F0A5D8DF50A8EC3EF0AB
:101F4800000902E00101E5D6010120EE18F07CD875
:101F580063C1DEFF64C1DEFF65C1DEFF66C1DEFF6F
:101F680087D872D894D848510008616F4951D8A0D1
:101F7800E82A0208626F6151425D6251435904E2E6
:101F880042C161F143C162F173D85ED880D83EC1C5
:101F98004AF13FC14BF148514A2749514B23220E80
:101FA8004A250E6E000E4B210F6E57C110F058C116
:101FB80011F061C112F062C113F018EC44F05ED860
:101FC80043D8000EDB8E6151425F6251435B81D87A
:101FD8006151DE266251DD22615157276251582333
:101FE80020EE10F031D86151DE266251F8EC12F083
:101FF80020EE10F029D800EE0AF03E51E9263F51B4
:1020080028D820EE0AF0D8A020EE10F01DD8DECF98
:1020180052F1DECF53F1DECF54F1DECF55F120EE91
:102028000AF012D852C1DEFF53C1DEFF54C1DEFFF1
:1020380055C1DEFF4251431101E0F0D520EE0EF00C
:1020480003D8000EDB8C000C3E51D9263F51DA2212
:102058001200EA22DE50EE5CDE50EE58DE50EE58FA
:10206800DE50EE581200DE50DE10DE10DE101200D8
:102078004669010E476F20EE10F0010C010120EEB9
:102088000EF012006751D9266851DA221200DECF0D
:1020980048F1DDCF49F14651481747514917120019
:1020A8005DC1DEFF5EC1DEFF5FC1DEFF60C1DEFF36
:1020B800120000EE10F03E51E9263F511200DECF2B
:1020C80046F1DDCF47F112005D515E115F116011DD
:1020D800120044C1D9FF45C1DAFF12003EC121F107
:1020E8003FC122F11200D8904637473712001CC171
:1020F80037F11DC138F16EDADE6ADD6A1AC110F0F7
:102108001BC111F0430E126E010E136E96EC3FF0D8
:102118000101326F325107E120EE0FF0F7D9DF509D
:10212800326F325102E03251120020EE0EF0EED939
:10213800DFA0070C20EE10F0E9D923DA20EE0AF030
:10214800E5D90DDA2251265D2E6F235127592F6FBD
:1021580024512859306F25512959316F1E51226F4A
:102168001F51236F246B256B22512E5D23512F594C
:10217800245130592551315901E3B9D12EC11EF1ED
:102188002FC11FF1B4D120EE10F0C0D9FF0EDE141C
:10219800226F010EDE14236F000EDE14246F000E72
:1021A800DE14256F225123112411251101E05BD182
:1021B80020EE10F0ABD9E5D90A0E05D0D89025331A
:1021C800243323332233E82EF9D72669276920EEF2
:1021D80009F0B7D9DECF28F1DDCF29F1265128271C
:1021E8002751292322512815396F235129153A6F70
:1021F800391147E120EE10F089D937EC10F00CE1E5
:1022080020EE06F083D9DECF33F1DECF34F1DECF16
:1022180035F1DECF36F112D01AC100F11BC101F140
:1022280020EE14F073D97DD9F9EC26F000C133F112
:1022380001C134F102C135F103C136F10101365152
:102248003511341107E1020E335D04E220EE0FF080
:102258005DD9CFD133290AE1342908E1352906E1CE
:10226800362904E120EE0FF051D9C6D120EE14F042
:102278004DD933C1DEFF34C1DEFF35C1DEFF36C1C3
:10228800DEFF43C12DF044C12EF020EE14F03ED9FC
:1022980081D9FEEC3DF02DC03FF12EC040F12FC09A
:1022A80041F130C042F101013F5140114111421149
:1022B80001E1CCD739513F273A514023000E412341
:1022C80042231EC122F11FC123F1090E246FD890A9
:1022D80023332233242FFBD722C13BF123C13CF106
:1022E8003B513C1179E03B513925226F3C513A2151
:1022F800236F20EE09F025D92251DE5C2351DE58E8
:102308000AE220EE09F01DD960D93951225D3B6FF0
:102318003A5123593C6F37C1D8F038C1D9F016D992
:102328003BC1DEF03CC1DFF020EE01F00AD9DF50FE
:10233800A8EC3EF0000901E088D03FD9E7D8DFAE2D
:102348003BD03B51226F3C51236F246B256B20EE11
:1023580018F0DCD804D93F51265D2A6F405127591F
:102368002B6F415128592C6F425129592D6F2251F9
:102378002A5D23512B5924512C5925512D591CE2E2
:1023880020EE18F0C3D821D93F51225F4051235B7A
:10239800090ED89022372337E82EFBD7225137254C
:1023A8000E6E235138210F6E220E1A25106E000E64
:1023B8001B2115D918EC44F03BC122F13CC123F193
:1023C800090ED890010122372337E82EFAD722C107
:1023D8003DF123C13EF176D020EE18F097D83F5159
:1023E800DE1809E14051DE1806E14151DE1803E12B
:1023F8004251DE182CE020EE0EF088D8DFAE17D060
:10240800220E1A25DED81B21CED81A51D9261B51E7
:1024180073D80001C4EC2DF094D8DF5059EC3AF091
:10242800000901E012D0C9D871D87F0EDF16220E3C
:102438001A25BFD81B210001D96F88D87BD881D82D
:10244800DF50A8EC3EF0000902E001010BD70101C2
:1024580020EE18F05BD83FC1DEFF40C1DEFF41C16E
:10246800DEFF42C1DEFF57D851D882D82451000878
:102478003D6F2551D8A0E82A02083E6F3D511E5DE8
:102488003E511F5904E21EC13DF11FC13EF137C143
:102498000EF038C10FF03FD839D86AD81AC126F1E2
:1024A8001BC127F12451262725512723220E262533
:1024B800106E000E2721116E3DC112F03EC113F0BF
:1024C80018EC44F001013D511E5F3E511F5B82D85C
:1024D8003D51DE263E51DD223D5137273E513823FE
:1024E80020EE10F013D83D51DE263E517DD81E5106
:1024F8001F1101E048D6000CDA22DECFDAF0DECF79
:10250800DBF0DECFDCF0DECFDDF012001A51D92689
:102518001B51DA2212002269010E236F20EE10F0FF
:10252800010CDECF02F1DECF03F1DECF04F1DECF06
:1025380005F11200DF6B010EDE6F010120EE01F0E4
:10254800010C4351D9264451DA2212003FC1DAF076
:1025580040C1DBF041C1DCF042C1DDF01200DECF4A
:1025680026F1DECF27F1DECF28F1DECF29F11200E8
:10257800DECF24F1DDCF25F1225124172351251771
:102588001200DECF22F1DECF23F1DECF24F1DECF41
:1025980025F11200DECF2FF0DECF30F0DECF31F0A4
:1025A800DECF32F012000001D96F010120EE18F0E1
:1025B80012000001D86F0101000C010120EE0EF09D
:1025C80012000001D86F0101000CDECF22F1DDCF2F
:1025D80023F1120020C1D9FF21C1DAFF1200116EC8
:1025E800020E136E126A020CDE22000EDE22DE22BA
:1025F800000C020EDF6E020C010EDF6E010C3EC1F4
:1026080010F03FC111F05D0E126E010E136E96ECC4
:102618003FF00101586F585105E120EE0FF02CDA18
:10262800DF50586F585102E05851120020EE0AF05E
:1026380023DA4051DE5C4151DE584251DE584351A5
:10264800DE5810E220EE0EF017DADFB20BD020EEE3
:102658000AF012DADECF40F1DECF41F1DECF42F1EF
:10266800DECF43F120EE10F007DADECF50F1DECFF7
:1026780051F1DECF52F1DECF53F1546B556B566BEF
:10268800576B20EE10F0F8D918DA40514111421179
:10269800431101E17AD120EE09F021DADECF44F1CD
:1026A800DDCF45F14451466F4551476F486B496B43
:1026B800090ED8904637473748374937E82EF9D7B3
:1026C80046C159F147C15AF148C15BF149C15CF1B2
:1026D800505151115211531172E0FF0E40250E6EE8
:1026E800FF0E41210F6EFF0E4221106EFF0E432197
:1026F800D1D92DEC41F00EC044F10FC045F110C006
:1027080046F111C047F1FF0E010150250E6EFF0E74
:1027180051210F6EFF0E5221106EFF0E5321BAD9B0
:102728002DEC41F00E500101445D0F5045591050F9
:1027380046591150475943E3FF0E5925446FFF0E80
:102748005A21456FFF0E5B21466FFF0E5C21476FD4
:10275800441F451F461F471FFF0E5025486FFF0E99
:102768005121496FFF0E52214A6FFF0E53214B6FC3
:10277800445148154C6F455149154D6F46514A15FE
:102788004E6F47514B154F6F20EE10F075D94CC165
:10279800DEFF4DC1DEFF4EC1DEFF4FC1DEFF20EE82
:1027A80010F06AD9DE50405FDE50415BDE50425B7C
:1027B800DD50435B20EE14F05FD976D92BD020EEA4
:1027C80006F05AD971D996D921E199D9F0EC26F0B9
:1027D8002AEC1CF07BD95F0560116111621105E1DB
:1027E80020EE0FF049D9FDEF12F05F290BE16029C7
:1027F80009E1612907E1622905E120EE0FF03CD9E2
:1028080000EF13F020EE06F037D93BD920EE14F094
:1028180033D937D96FD964E1B8D05951405F5A518B
:10282800415B5B51425B5C51435B20EE10F024D965
:102838005951DE265A51DE225B51DE225C51DE22DE
:1028480020EE0EF019D9DFA213D059D95FC123F1B8
:1028580060C124F161C125F162C126F12AEC1CF0A6
:1028680035D948D91BE1406B416B426B436B41D072
:102878003EC100F13FC101F15FC102F160C103F146
:1028880061C104F162C105F1F9EC26F000C15FF104
:1028980001C160F102C161F103C162F101015F2967
:1028A80007E1602905E1612903E1622901E1A5D772
:1028B80062516111601103E1020E5F5D91E320EE48
:1028C80015F00DD9DE505F5DDE506059DE5061595C
:1028D800DE50625901E384D720EE14F0CDD8D1D868
:1028E8004051595D41515A5942515B5943515C59C4
:1028F80094E320EE10F0C0D84051DE264151DE228C
:102908004251DE224351DE224051446F010E4115EF
:10291800456F466B476B44114611471136E05DC160
:102928002DF05EC12EF05FC12FF060C130F061C1A3
:1029380031F062C132F0FEEC3DF02DC054F12EC0F2
:1029480055F12FC056F130C057F1010154515511BE
:102958005611571101E144D740C144F141C145F135
:1029680042C146F143C147F10A0E05D0D89047331A
:10297800463345334433E82EF9D74451542745515B
:102988005523465156234751572320EE10F074D84B
:10299800ABD82DEC10F00BE220EE10F06DD8A4D8D7
:1029A800DAEC17F020EE0EF067D8000EDB8C20EE84
:1029B80010F062D8FF0EDE14446F010EDE14456F6E
:1029C800000EDE14466F000EDE14476F44514511A9
:1029D8004611471101E128D620EE18F04DD8545180
:1029E800DE180AE15551DE1807E15651DE1804E1F8
:1029F8005751DE1801E118D620EE0EF03DD8DFAEB3
:102A08001CD0220E3E25E5EC12F03F21D7EC12F047
:102A18003E51D9263F5180EC12F00001C4EC2DF054
:102A28005ED8DF5059EC3AF0000901E01DD00101F1
:102A380020EE0EF021D87F0EDF16220E3E25DDECAB
:102A480012F03F210001D96F54C1DAF055C1DBF013
:102A580056C1DCF057C1DDF09EEC12F040D8DF50D3
:102A6800A8EC3EF0000902E00101C7D6010120EE02
:102A780018F002D822D8D8D53E51D9263F51DA22AB
:102A880012005FC1DEFF60C1DEFF61C1DEFF62C10F
:102A9800DEFF1200116E59C112F05AC113F05BC16A
:102AA80014F05CC115F01200DECF5FF1DECF60F1EB
:102AB800DECF61F1DECF62F1120054C1DEFF55C1F5
:102AC800DEFF56C1DEFF57C1DEFF120021C15FF1F4
:102AD80022C160F123C161F124C162F112005D518C
:102AE800D9265E51DA22120000EE0AF03E51E9269C
:102AF8003F5112005F5160116111621112003EC115
:102B080021F13FC122F112008751881101E1090C1E
:102B18003F0E8B17890E066F010E076FAE0E086FFA
:102B2800010E096F8BC10AF1C3EC09F00101B06F06
:102B3800B05101E033D2AEC1B1F1AFC1B2F1B10EC3
:102B4800656F010E666F89C167F18AC168F1F8EC9B
:102B580033F0B06FB05104E1D8AF02D0060EB06FB9
:102B68008BC18CF11C0E8C1701E1B3D0B0510CE075
:102B7800040EB01907E1B10E656F010E666F31ECF6
:102B880024F0B06F8B870BD0B5C18CF1110E8C1768
:102B980002E0070E03D08BA502D0080EB06FB0512B
:102BA80001E0A2D08BA7A0D01EDA68EC41F0DDC00E
:102BB800A2F1DEC0A3F1DFC0A4F1E0C0A5F10E0EC2
:102BC8000101CB2541EC30F0CC210001616F4FECC5
:102BD80038F00EC062F00FC063F010C064F011C08E
:102BE80065F0F3EC44F0010120EE0BF0CB51D9264F
:102BF800CC51DA22200EDF6EAEC112F0AFC113F055
:102C0800CBC114F0CCC115F0166A176A186A196A94
:102C1800B7EC44F01C0E0101CB2541EC30F0CC217F
:102C28000001616F626B636B646B656BF3EC44F07E
:102C3800010120EE03F0C9D9010EDF6EA251A311E4
:102C4800A411A51151E020EE2DF0BFD9DECF94F1EB
:102C5800DECF95F1DECF96F1DECF97F1B10E216F81
:102C6800010E226FA2C123F1A3C124F1A4C125F151
:102C7800A5C126F1D3EC2DF091EC32F0B06FB05134
:102C880033E1AEC1F2F0AFC1F3F094C1F4F095C1F5
:102C9800F5F096C1F6F097C1F7F0FBEC3EF00101B4
:102CA800B06FFF0EA2258C6FFF0EA3218D6FFF0E54
:102CB800A4218E6FFF0EA5218F6F20EE0DF085D910
:102CC8008CC1DEFF8DC1DEFF8EC1DEFF8FC1DEFF4E
:102CD8000BD0B05109E1B5A902D0040E04D08BB3D2
:102CE800B5A102D0070EB06FB05110E18BB78B8D34
:102CF80020EE2DF06AD900EE1CF071D957D920EEDC
:102D080020F05ED9CBC1DEFFCCC1DDFFB05101E0C0
:102D180045D169D968EC41F0010120EE06F050D99F
:102D2800DDC0DEFFDEC0DEFFDFC0DEFFE0C0DEFFAD
:102D38001C0ECB250E6E000ECC210F6E43EC42F01C
:102D4800010120EE0AF03CD958EC0DF055D9AEC17E
:102D5800DEFFAFC1DDFF20EE05F037D900EE02F04F
:102D68003ED94EEC3AF020EE0EF02AD98BC1DFFFA7
:102D780020EE0FF025D9DF6A20EE18F021D92AD9E4
:102D880020EE10F01DD926D9220E87250E6E000ED2
:102D9800882104EC31F021EC46F001018BABFED028
:102DA80020EE0AF08751D926885109EC24F001E178
:102DB800F5D020EE0AF004D900EE10F010D9F6D8BC
:102DC80020EE09F002D9DECF8CF1DDCF8DF18C51E8
:102DD8008E6F8D518F6F906B916B090ED8908E37D7
:102DE8008F3790379137E82EF9D78EC19EF18FC172
:102DF8009FF190C1A0F191C1A1F120EE06F0E0D8B9
:102E0800DECFAAF1DECFABF1DECFACF1DECFADF194
:102E180020EE0AF0D5D8DECFA6F1DECFA7F1DECFBF
:102E2800A8F1DECFA9F132D087C100F188C101F144
:102E3800AAC102F1ABC103F1ACC104F1ADC105F106
:102E4800F9EC26F000C1AAF101C1ABF102C1ACF165
:102E580003C1ADF10101AD51AC11AB1105E1020E99
:102E6800AA5D02E2020EB06FAA2908E1AB2906E1C9
:102E7800AC2904E1AD2902E1010EB06F9E51A65FB5
:102E88009F51A75BA051A85BA151A95BB05109E173
:102E9800A6519E5DA7519F59A851A059A951A15962
:102EA800C3E320EE14F08CD8AAC1DEFFABC1DEFF6D
:102EB800ACC1DEFFADC1DEFFB05170E1A6518C6F31
:102EC800010EA7158D6F8E6B8F6B8C118E118F1164
:102ED80065E0AEC12DF0AFC12EF0AAC12FF0ABC195
:102EE80030F0ACC131F0ADC132F0FEEC3DF02DC098
:102EF80098F12EC099F12FC09AF130C09BF10101D1
:102F0800985199119A119B1102E1020E46D0A6C15F
:102F18008CF1A7C18DF1A8C18EF1A9C18FF10A0E5C
:102F280005D0D8908F338E338D338C33E82EF9D774
:102F380098518C25906F99518D21916F9A518E21BE
:102F4800926F9B518F21936F20EE18F039D890C162
:102F5800DEFF91C1DEFF92C1DEFF93C1DEFF220ECC
:102F68008725DDEC12F088210001D96F010120EEE0
:102F780018F026D8DECFDAF0DECFDBF0DECFDCF0DB
:102F8800DECFDDF000019EEC12F01FD8DF50A8EC78
:102F98003EF0000903E0010E0101B06F0101B051DC
:102FA80003E02AD8DE6ADD6AB0511200EA22DECFD9
:102FB800EEFFDECFEEFFDECFEEFFDECFEEFF12003C
:102FC8008751D9268851DA221200AE51D926AF513D
:102FD800DA221200DE6ADE6ADE6ADD6A12008751D2
:102FE800E92688511200AEC1DDF0AFC1DEF0CBC1D9
:102FF800DFF0CCC1E0F0120087C1D9FF88C1DAFF49
:1030080012000DDADECF86F0DDCF87F060C0D9FF81
:1030180061C0DAFF00EE0BF0F1EC20F0EECF8EF09D
:10302800EDCF8FF0926B936B860E206E1CEC3CF00C
:1030380020C082F021C083F022C084F023C085F034
:103048000001822907E1832905E1842903E1852913
:1030580001E1060C855102E1840507E399D984C092
:10306800DEFF85C0DDFF924B932B82C094F083C0B6
:1030780095F0955103E1200E945D28E32F0E9419E5
:10308800951124E05C0E9419951120E095510DE1FD
:10309800800E945D0AE2900E0E6EFF0EB0D9BCEC65
:1030A80045F00E500F1001E0060C9351D2E1640E6A
:1030B800925D01E3060C6CD994C0DEFF95C0DDFF7C
:1030C800924B932BB1D70001864B872B82D9F7649B
:1030D80003D00800F55002D0CAEC39F02F0AF3E00B
:1030E80078D9F76403D00800F55002D0CAEC39F05B
:1030F8005C0AE9E094D986C0DEFF87C0DDFF0001E5
:10310800955103E1200E945D03E3806B816B03D03E
:10311800816B040E806F80C08AF00DD023D97AD9D4
:10312800200E9419951104E02E0E9419951106E1BC
:103138009207D8A0930792519311F0E129D9DE6A3A
:10314800DD6A9251931101E1060C906B916B02D0EC
:10315800904B912B27D9200EDE18DE10F9E0905104
:10316800911105E11FD92E0EDE18DE1006E1030EBF
:103178008A1303D09207D8A093079251931105E0C0
:10318800F1D82E0EDE18DE10F5E11C0E60250E6E4D
:10319800000E61210F6E25D921EC46F000018D6BE0
:1031A8008DC088F0896B8C6B080E8B6FFBD832D979
:1031B800904B912B9451951101E1B0D0200E9419A8
:1031C80095110AE02E0E9419951109E19251901962
:1031D80003E19351911903E0030E8A13E7D78B514A
:1031E800885D8C51895906E29251901924E19351D6
:1031F800911921E10B0E8B198C1103E1030E8A132F
:103208008DD09251901903E19351911902E0030E68
:103218008A139051925D9151935901E27FD092C0E7
:1032280090F093C091F0896B080E886F8C6B0B0E31
:103238008B6FEBD8BBD7955103E1800E945D1EE3ED
:103248008A8394C00EF095C00FF0106A116AECD80A
:1032580055EC3EF00EC094F00FC095F094AF0ED030
:103268007F0E9415646F656B3B0E6425F66EF70E42
:1032780065213FEC35F0F550946F956B95051CE38F
:10328800646965698BC066F08CC067F06451662715
:10329800655167236651885D6751895907E3030EB5
:1032A8008A138BC088F08CC089F080D785D895C0E8
:1032B800DFFF884B892B2CD09451951109E0C40E5F
:1032C8000E6EFF0E9CD8BCEC45F00E500F1006E0B9
:1032D800956B5F0E946F030E8A131AD0955103E114
:1032E800410E945D06E3955104E15B0E945D01E2A5
:1032F8008D83955103E1610E945D0AE3955108E1D0
:103308007B0E945D05E28D81200E945F000E955B27
:1033180053D894C0DFFF884B892B48D769D8E50E6E
:10332800DE1803E165D8050EDF6E080E8B198C11C7
:1033380001E16BD88D510C0B0C0A04E08D51030B85
:10334800030A01E18A838AB304D08DB18A898DB5D5
:103358008A8720EE27F06051D9266151DA228AC087
:10336800DFFF000C92C064F093C065F0D89064371A
:1033780065378EC066F08FC067F064516627655167
:103388006723FE0E6625D96EFF0E6721DA6E1200DE
:10339800D8909235D96E9335DA6E8E51D9268F51E1
:1033A800DA221200D8909035D96E9135DA6E8E51A6
:1033B800D9268F51DA22120088516025646F89510D
:1033C8006121656F1C0E6425D96E000E6521DA6EC9
:1033D800120086C0F6FF87C0F7FF000EF86E0F0ECA
:1033E8001200116A200E106E136A0B0E126E0B0C6F
:1033F80020EE1CF06051D9266151DA2212000F6EBE
:1034080094C010F095C011F01200D8908D37D89064
:103418008D371200DECF94F0DDCF95F0120062C038
:10342800D9FF63C0DAFF1200030E136E590E126E35
:10343800590C0101006FD9C017F1DAC018F1005119
:1034480001E0040C010E156F52B0030CADD17EECF7
:1034580046F0000901E1BDD10101156BBAD1BED911
:10346800090E10EC45F0000901E0B3D1BCD9DBEC42
:1034780042F0000901E1ADD101010145E846030B25
:10348800E80652E108C1DBF03F0E0001DB17DBC0A4
:10349800DCF0DD6BDE6BDF6BDDC0DFF0DCC0DEF0A7
:1034A800DD6BDC6B010109510001E16FE06B01018B
:1034B8000A510001E26FE36BE051E227E151E32397
:1034C800E251DC25E46FE351DD21E56F000EDE21DA
:1034D800E66F000EDF21E76FE4290101116F000E8E
:1034E8000001E5210101126F000E0001E621010132
:1034F800136F000E0001E7210101146F11C1DBF009
:1035080012C1DCF013C1DDF014C1DEF00A0ED89050
:103518000001DB37DC37DD37DE37E82EF8D771D925
:10352800DBC0DEFF73D998D70001DB6B0BAF01D08E
:10353800DB2B010EDB1706C1DCF00F0EDC170101D7
:103548000A51030B020DF3500001DC25DB25020FA5
:103558000101166F0751030B0001DB6FDC6B0A0ECC
:10356800D890DB37DC37E82EFBD7010108515CD94E
:10357800D890DD37DE3701010945E846030B000125
:10358800DF6FE06BDD51DF27DE51E023DB51DF2702
:10359800DC51E023DF2B000EE023DFC011F1E0C097
:1035A80012F10101136B146B16C1DBF0F70E000169
:1035B800DB2711C1DCF012C1DDF013C1DEF014C14C
:1035C800DFF0DB2B01D037D9DB2FFDD72DD04CA472
:1035D80030D004D98D0E10EC45F0000901E0F9D087
:1035E800FF0EBDEC46F0FFD8DBEC42F0000901E12C
:1035F800F0D0300E0101166F05D0FF0EBDEC46F07D
:10360800010116071651F9E10BC1DBF00001DB3BA4
:103618000F0EDB17100EDC6FDD6BDE6BDF6BDB2B49
:1036280001D009D9DB2FFDD7ECD8F0D8DFC0DEFFF9
:1036380013D7D4D8090E10EC45F0000901E0C9D021
:10364800D2D8DBEC42F0000901E1C3D04CA22BD068
:103658000EC1DBF0060E0001DC6FD890DB33DC2FE7
:10366800FCD7FF0EDB2701010B513F0BDDD8010111
:103678000C45010B0001DD27000EDE23DD2BDE23C8
:10368800DB2B03D0D890DD37DE37DB2FFBD70001EB
:10369800DD51DF6FDE51E06FE16BE26BB2D8BDD870
:1036A800E2C0DEFFD9D60BC1DBF00001D890DB33D6
:1036B800D890DB331F0EDB17DB290E6E0F6A000E66
:1036C8000F2201010C51030B0001DC6FDD6BD89058
:1036D800DC37DD37D890DC37DD37D890DC37DD379D
:1036E80001010C39E842070B0001DC27000EDD233D
:1036F800DC29106E000EDD21116E0EEC46F00E5026
:103708000001DE6F0F50DF6FE06BE16B7AD8DEC02F
:10371800DEFF83D8A1D695D84CC0DFFF9DD65ED8F2
:10372800090E10EC45F0000954E165D8100E246E1E
:10373800DBEC42F0000901E08FD64BD04FD80A0EDF
:1037480010EC45F0000945E156D8100E246EDBEC6C
:1037580042F0F0D743D83A0E10EC45F0000939E1B1
:10376800040E0101166F09D0FF0EBDEC46F069D8B2
:10377800DF6E0101174B182B1607165101E16CD6A5
:10378800F3D72CD88D0E10EC45F0000922E1FF0E7E
:10379800BDEC46F030D8400E246EDBEC42F0CAD7C0
:1037A800040E0101156F15D00001D85101E14FD663
:1037B800010A01E154D6020A01E109D7090AABE07E
:1037C800010AADE0070ABAE0010AC4E0030AD9E039
:1037D800E7D7FEEC46F0010115511200306A316A54
:1037E800326A336A1200010E226E010E236E256AB8
:1037F800100E246E100C17C122F018C123F0256A90
:103808001200D9C0D9FFDAC0DAFF1200DCC0DEFF2F
:10381800DDC0DEFFDEC0DEFF1200DFC0DEFFE0C07D
:10382800DEFFE1C0DEFF12000001DD6FDE6BD89025
:10383800DD37DE371200D890DC37DD37DE37DF378B
:10384800120017C1D9FF18C1DAFF120021C1D9FF30
:1038580022C1DAFFDECF38F1DDCF39F19FD91FE180
:1038680020EE0DF07BD9DECF30F1DECF31F1DECFA7
:1038780032F1DECF33F1305131113211331109E019
:1038880065D9305DDE503159DE503259DE5033593A
:1038980041E3010E306F316B326B336B3BD021C18A
:1038A80000F122C101F123C102F124C103F125C1B4
:1038B80004F126C105F1F9EC26F055D93D513C112A
:1038C8003B1109E1020E3A5D06E2010E216F226BFF
:1038D800236B246B000C3A290FE13B290DE13C29AD
:1038E8000BE13D2909E13AC121F13BC122F13CC17B
:1038F80023F13DC124F1120029D93A5DDE503B592C
:1039080052D9F1E323C130F124C131F125C132F19B
:1039180026C133F120EE11F03851D926395109EC7E
:1039280024F005E1216B226B236B246B12004AD92A
:103938002351301952E1245131194FE125513219DF
:103948004CE126513319D8A448D03029346F000EE1
:103958003121356F000E3221366F000E3321376F5B
:10396800F5D8345DDE50355928D901E311D921C184
:1039780000F103D9F9EC26F0F6D83A053B113C11D1
:103988003D11B1E03A2906E13B2904E13C2902E175
:103998003D29A9E00DD921E020EE0DF0DFD8DECFDA
:1039A8003AF1DECF3BF1DECF3CF1DECF3DF13D51C8
:1039B8003C113B1103E1020E3A5D0EE3C7D83A5DB4
:1039C800DE503B59F0D808E23AC130F13BC131F141
:1039D8003CC132F13DC133F1F5D8345135113611BE
:1039E800371140E130C134F131C135F132C136F11E
:1039F80033C137F1342B000E352336233723A6D8AD
:103A0800345DDE503559D9D808E3C2D83351321164
:103A1800311103E1020E305D85E321C100F1ADD81B
:103A2800F9EC26F0A0D8C4D81DE03A053B113C11AA
:103A38003D1101E158D73A2907E13B2905E13C2925
:103A480003E13D2901E14FD730513419D3E1315118
:103A58003519D0E132513619CDE13351371901E129
:103A680061D7C8D7B9D834C102F135C103F136C11D
:103A780004F137C105F1ABD82DEC21F02F6F2F5190
:103A880016E18CD814E0A8D823C102F124C103F1AF
:103A980025C104F126C105F134C106F135C107F18C
:103AA80036C108F137C109F12DEC21F02F6F2F51E4
:103AB80037E120EE0DF052D834C1DEFF35C1DEFF0C
:103AC80036C1DEFF37C1DEFF20EE11F047D800EE29
:103AD80015F03851E9263951EA22FE0EEE242B6FF3
:103AE800FF0EEE202C6FFF0EEE202D6FFF0EEE2046
:103AF8002E6FDE502B5DDE502C59DE502D59DE50D6
:103B08002E5908E320EE11F029D8DE06000EDE5A01
:103B1800DE5ADE5A20EE04F021D8000EDB800DD0EC
:103B28002F0507E0010E346F000E356B366B376BCF
:103B380004D0346935693669376934C121F135C132
:103B480022F136C123F137C124F1120020EE15F01D
:103B58003851D9263951DA22DE5012003851D92687
:103B68003951DA22120000C13AF101C13BF102C118
:103B78003CF103C13DF10101120022C101F134C140
:103B880002F135C103F136C104F137C105F1120064
:103B9800020E346F356B366B376B020C23512411D0
:103BA800251126111200DE503C59DE503D591200F5
:103BB8003A513B113C113D111200DE503659DE508E
:103BC80037591200346B356B366B376B1200066948
:103BD800076908690969120038C100F139C101F1A2
:103BE800120086D91B4A1C2A0001B35101E11200B8
:103BF800250EB31905E0B351E66E0BEC43F0F1D78F
:103C0800AE6BAF6B75D91B4A1C2A300EB31907E18E
:103C1800AF6B010EAE6F6CD91B4A1C2A06D02D0E55
:103C2800B31903E1AF6B020EF5D7A66BA76B17D0DC
:103C3800A6C00EF0A7C00FF0116A0A0E106E0EECA7
:103C480046F00001B3510E26000E0F22D00E0E24AE
:103C5800A66FFF0E0F20A76F4BD91B4A1C2A2F0EE9
:103C6800B36503D0390EB365E3D76C0EB31903E01F
:103C78004C0EB31904E1AE853BD91B4A1C2AB3513B
:103C880001E11200B3C0B2F0600EB26555D0200E4B
:103C9800B25F52D01D50D96EDA6A020E40D9DECF1B
:103CA800A2F0DECFA3F0A86BA96B03D00001A84B4C
:103CB800A92BA851A2251E6EA951A3211F6E1EC0B3
:103CC800F6FF1FC0F7FF000EF86E0F0EF76403D063
:103CD8000800F55002D0CAEC39F0000905E0E6D733
:103CE800200EE66E0BEC43F00001AEB302D0F5D81F
:103CF800F7E3A2C010F0A3C011F05EEC43F004D0CB
:103D0800200EE66E0BEC43F00001E7D801E369D71B
:103D1800F7D7F7D8DF50E66E0BEC43F062D7A56B08
:103D2800020E08D0A56B080E05D0A56B0A0E02D0AE
:103D3800A56B100EA46F10D0B251420AF0E0010A30
:103D4800E8E0070AF2E00B0AEDE01C0AA3E0060A25
:103D5800ECE00D0AEDE04FD7AEB522D0440EB21913
:103D68000CE0CFD8DECF1EF0DDCF1FF01EC09AF0DA
:103D78001FC09BF09C6B9D6B0AD0C3D8DECF9AF016
:103D8800DDCF9BF0000E9BBFFF0E9C6F9D6F9AC00E
:103D9800AAF09BC0ABF09CC0ACF09DC0ADF00DD0BC
:103DA8001D50D96EDA6A040EBAD8DECFAAF0DECF7B
:103DB800ABF0DECFACF0DECFADF0440EB2190CE1C3
:103DC800ADAF0AD0AA6DAB1FD8B0AB2BAC1FD8B023
:103DD800AC2B000EAD57AE87B06BB16BAAC00EF01E
:103DE800ABC00FF0ACC010F0ADC011F0A4C012F021
:103DF800A5C013F0146A156AAAEC42F00E5000012F
:103E0800B26FAAC00EF0ABC00FF0ACC010F0ADC0DE
:103E180011F0A4C012F0A5C013F0146A156A2DECB5
:103E280041F00EC0AAF00FC0ABF010C0ACF011C04A
:103E3800ADF0090E0001B2650BD0780EB31903E09E
:103E48009F6B070E02D09F6B270E9E6F9E51B22765
:103E580061D8B251300FDF6EB04BB12BAA51AB1104
:103E6800AC11AD1105E0B15103E1100EB05DB6E340
:103E7800AEA705D04FD82D0EDF6EB04BB12BB0C01A
:103E8800A8F0B1C0A9F0AEB103D0A16B200E02D04A
:103E9800A16B300EA06FA0C0B2F004D0B251E66E94
:103EA8000BEC43F00001AEB302D017D8F7E3B0072C
:103EB800D8A0B1072FD8DF50E66E0BEC43F0000115
:103EC800B051B11105E0F3D7200EE66E0BEC43F0CC
:103ED800000103D801E385D6F7D7A8511E6EA95172
:103EE8001F6EA84BA92BA6511E5CA7511F58120084
:103EF8001BC0F6FF1CC0F7FFF86A0800F5CFB3F047
:103F080012001D50D96EDA6ADF50DF2ADF2AD96E17
:103F1800DA6A1200B0518A0FD96EDA6A1200DF2607
:103F2800DF5CD96EDA6A1200DDC0D9FFDEC0DAFFC5
:103F3800DECFF5F0DDCFF6F0000120EE16F06FD9F8
:103F4800DF6A20EE16F062D909EC24F001E11200D4
:103F580020EE28F05BD9DA22DE2806E1DE2804E12B
:103F6800DE2802E1DE2860E0F76BF86B62D951D0F9
:103F780039D9DECFFBF0DDCFFCF0F94BFA2BF75146
:103F8800F8110BE1D80EFC5D08E3E00EFC5D05E2DC
:103F9800FBC0F7F0FCC0F8F03CD0F751E16FF851E6
:103FA800E26FE36BE46BE2C0E4F0E1C0E3F0E26BE4
:103FB800E16BFB51E111206EFC51E211216E000E04
:103FC800E311226E000EE411236EFD51DF25E56F2B
:103FD800FE51E021E66F160EE525246E000EE6215F
:103FE800256EFD51FF08266EFE51D8A0E82A00086C
:103FF800276ED8EC41F0FB6FFC6BFB51FC1103E121
:10400800FD6BFE6B0AD0FB51FD27FC51FE23F76BBD
:10401800F86BE8D8DE50DE10ABE1F751F81102E09A
:10402800FD6BFE6BB0D8DF6A04D92DD0CFD8FCD891
:10403800F951E125D96EFA51E221DA6EDF50FB6FB2
:10404800FC6BF94BFA2B200EFB19FC111CE0050E3A
:10405800FB19FC1103E1FC6BE50EFB6F090EF91966
:10406800FA110BE1FE5109E10C0EFD5D06E2FD516E
:1040780097D82E0EDF6EFD4BFE2BFD5191D8FBC05D
:10408800DFFFFD4BFE2BFA5103E10B0EF95DCEE38A
:10409800FD5186D8DF6A20EE16F0C1D8DF5045E121
:1040A800FD51FE1106E16FD83F0EDF6EFD4BFE2B72
:1040B80030D0BFD82BD0AED87FD8FB6FFC6BFC516B
:1040C80003E1410EFB5D1BE3FC5119E15B0EFB5D57
:1040D80016E2FA5106E1090EF95D03E2F46B080EE7
:1040E80002D0F46B100EF36F71D800EE0CF075D897
:1040F800EF50F31504E0200EFB27000EFC2343D8F5
:10410800FBC0DFFFF94BFA2BFD4BFE2B83D854D8AD
:10411800D2E139D8DF6A5AD800EE0CF05ED8EF50F9
:1041280004E120EE09F07BD8DF6A50D800EE0BF0EE
:1041380054D820EE08F073D8EFCFDFFF47D874D8F3
:104148001C0EE1250E6E000EE2210F6E43EC42F0CC
:10415800DFC0D9FFE0C0DAFF58EC0DF0000136D817
:1041680063D8160E70D847EC45F020EE06F057D805
:1041780065D82CD859D8180E66D847EC45F020EEEB
:1041880004F04DD85BD0FD51DF25E16FFE51E021F1
:10419800E26F160EE125D96E000EE221DA6E1200EA
:1041A800DF25E16FFE51E021E26F090EE125D96EAE
:1041B800000EE221DA6E1200E021E26F090EE1251D
:1041C800D96E000EE221DA6EDF50120020EE1AF0EE
:1041D800DD51D926DE51DA221200DE50E926DD5003
:1041E800EA22120020EE0BF0F551D926F651DA2218
:1041F800DECFE1F0DDCFE2F0D890F935D96EFA35AF
:10420800DA6EE151D926E251DA221200DD51D926BF
:10421800DE511200F951DF25E16FFA511200DF512A
:10422800D926E051DA221200DECFE1F0DDCFE2F04C
:104238001200FD6BFE6BF96BFA6B120039C0DEFFE2
:104248003AC0DDFF1200E125396E000EE2213A6E18
:104258001200020E206F05510411031104E1020E31
:10426800025D01E201D120EE15F026D9DE50025D93
:10427800DE500359DE500459DE50055901E2E7D0FB
:10428800F3D002C11EF103C11FF1D8901F310B6F8B
:104298001E310A6F0A511E270B511F23E7D811D967
:1042A800FBEC3EF00101206F205101E0DDD028D960
:1042B800F0D853D91E4B1F2B02B104D006C118F1F8
:1042C800196B17D006510A6F0B6B0A3B0B3BF00EAC
:1042D8000B170A510F0B0B13F00E0A1739D9DF50C1
:1042E8000F0B0C6F0D6B0A510C11186F0B510D1140
:1042F800196F2ED918C1DFFF20EE03F0DDD8010EAB
:10430800DF6EB4D8DED8FBEC3EF00101206F2051FF
:1043180001E0AAD0F5D8BDD820D902B109D007C18B
:104328000AF10F0E0A1714D9DF50F00B0A1112D038
:1043380006C10AF107C10BF108C10CF109C10DF161
:10434800050E05D0D8900D330C330B330A33E82E05
:10435800F9D70A511A6F1B6BFBD81AC1DFFF1DD0A2
:1043680085D803510E6F04510F6F0551106F116BF3
:10437800D3D8FBEC3EF00101206F205175E1E0D865
:1043880097D887D80E6E000E0F210F6E06C110F059
:1043980007C111F046EC46F058D020EE03F08CD857
:1043A800010EDF6E61D062D802C10EF103C10FF1B8
:1043B80004C110F105C111F1080E05D0D8901133D0
:1043C80010330F330E33E82EF9D7A6D8FBEC3EF0A6
:1043D8000101206F205148E1B3D89AD869D859D83B
:1043E8000E6E000E0F210F6E43EC42F00101106BB0
:1043F800116B126BF00E1114136F0651146F0751E5
:10440800156F0851166F0F0E0915176F10511411FB
:10441800066F11511511076F12511611086F1351BC
:104428001711096F8DD874D843D833D841EC30F0C0
:104438000F210001616F06C162F007C163F008C176
:1044480064F009C165F0F3EC44F00101A6D700C19E
:10445800D9FF01C1DAFFDF50010A01E112D7030ACF
:1044680001E17ED7010A9FE02051120000C1F2F05D
:1044780001C1F3F020EE21F00051D9260151DA22D2
:10448800DECF0AF1DECF0BF1DECF0CF1DECF0DF17E
:1044980012000A510C170B510D1700C10EF101C182
:1044A8000FF10C510E270D510F23310E0E2512005E
:1044B800D8900C370D3712000051D9260151DA2255
:1044C80012001EC10EF11FC10FF1090E106FD89016
:1044D8000F330E33102FFBD70E510A250001F46F4E
:1044E80001010F510B210001F56F000E01010C2194
:1044F8000001F66F000E01010D210001F76F120097
:104508000A69010E0B6F1EC10CF11FC10DF1010CE0
:10451800D8900C370D3712000A510E250001F46FA0
:1045280001010B510F210001F56F01010C51102100
:104538000001F66F01010D5111210001F76F120002
:104548000A69010E0B6F02C10CF103C10DF1010CD8
:104558001CC1D9FF1DC1DAFF12001C6F000E0F210C
:104568001D6F12003EC1D9FF3FC1DAFFDECF56F101
:10457800DDCF57F120EE0EF04ED9DECF42F1DECF7F
:1045880043F1DECF44F1DECF45F1200E4225526FD4
:10459800000E4321536F000E4421546F000E452135
:1045A800556F20EE16F03E51D9263F512ED9D8B47A
:1045B800040C555103E1200E545D01E3040C5251E3
:1045C800426F010E5315436F446B456B4211441102
:1045D800451101E0F0D020EE16F01DD938D920EEB3
:1045E80012F03E51D9263F5110D929E120EE07F0AB
:1045F80029D9DECF42F1DDCF43F14251446F435117
:10460800456F466B476B52C148F153C149F154C1DC
:104618004AF155C14BF1060E05D0D8904B334A33B9
:1046280049334833E82EF9D74451485D4551495933
:1046380046514A5947514B5901E2BDD05FD04269B2
:10464800436920EE09F0FED8DECF44F1DDCF45F115
:10465800425144274351452352C146F153C147F1C2
:1046680054C148F155C149F10A0E05D0D8904933D3
:10467800483347334633E82EF9D7445146154A6F35
:10468800455147154B6F4C6B4D6B4A114C114D11F1
:1046980001E091D03EC100F13FC101F120EE12F0DE
:1046A800BAD895EC12F0F9EC26F000C158F101C126
:1046B80059F102C15AF103C15BF101015B515A1171
:1046C800591104E1020E585D01E2020C582907E174
:1046D800592905E15A2903E15B2901E1010C20EE82
:1046E80015F0B0D8DE50585DDE505959DE505A5991
:1046F800DE505B5941E34051411106E120EE16F0CE
:104708008AD8EEEC17F0040C3EC121F13FC122F12A
:1047180020EE12F080D884D82AEC1CF021C158F180
:1047280022C159F123C15AF124C15BF158515911E1
:104738005A115B1101E1070C580559115A115B1107
:1047480001E1020C582907E1592905E15A2903E139
:104758005B2901E1010C56C1F2F057C1F3F058C1D1
:10476800F4F059C1F5F05AC1F6F05BC1F7F0C5ECA9
:1047780037F0000901E0010C010120EE12F04BD8DE
:1047880058C1DEFF59C1DEFF5AC1DEFF5BC1DEFF43
:1047980056C12DF057C12EF058C12FF059C130F035
:1047A8005AC131F05BC132F0FEEC3DF0010120EE60
:1047B80016F031D83ED820EE0EF02DD852C1DEFFCB
:1047C80053C1DEFF54C1DEFF55C1DEFF4269010E51
:1047D800436F52C144F153C145F14251441743510B
:1047E800451756C146F157C147F14451462745512F
:1047F8004723310E4627000E472320EE1AF00BD828
:1048080046C1DEFF47C1DDFF000CDA22DE50DE10B4
:10481800DE10DE1012003E51D9263F51DA22120076
:10482800DECF23F1DECF24F1DECF25F1DECF26F176
:1048380012002DC0DEFF2EC0DEFF2FC0DEFF30C00D
:10484800DEFF12005651D9265751DA221200DE2A0D
:10485800000EDE22DE22DE22000C65C1D9FF66C111
:10486800DAFFDECF84F1DDCF85F120EE27F03AD9EB
:10487800DF50676FA00E671701E0060C7E6B7F6B39
:1048880002D07E4B7F2B33D9DECF67F1DDCF68F1C5
:10489800D8907E35D96E7F35DA6E6751D926685142
:1048A800DA22DE50DE10EDE1710E0E6E010E0F6E93
:1048B8002CD90C0E126E18EC44F001017CA13CD0EE
:1048C80020EE27F00FD9400EDF6E816B010E806F4E
:1048D8001C0E6525186E000E6621196E710E1A6E73
:1048E800010E1B6E04D9DECF1CF0DDCF1DF080C198
:1048F8001EF081C11FF0B5EC2EF065C1FCF066C159
:10490800FDF0F9EC2BF0866F865107E1804B812B87
:10491800815103E1640E805DDBE3640E801981112F
:1049280001E1070C040E861902E08651120020EE00
:1049380027F0D8D87CC1DFFF7CB305D0000E836F89
:10494800010E826F11D00C0E7E250E6E000E7F2197
:104958000F6E116A0D0E106ED2EC43F00E28010195
:10496800826F000E0F20836F65C15CF166C15DF137
:1049780082C15EF183C15FF183EC3CF0866F8651A2
:1049880068E1CFD866E065C11AF166C11BF182C142
:1049980067F183C168F1050ED89067376837E82E4C
:1049A800FBD76751696F68516A6F6B6B6C6B20EE50
:1049B8000EF098D8DECF6DF1DECF6EF1DECF6FF15D
:1049C800DECF70F169516D5D1C6F6A516E591D6FB4
:1049D8006B516F591E6F6C5170591F6F84EC29F021
:1049E800866F865136E11C0E65250E6E000E662117
:1049F8000F6ED5EC44F001017D6F6AD85FD8FBECEF
:104A08003EF00101866F865124E171D8DECF14F0A3
:104A1800DDCF15F020EE1AF065D8DECF16F0DDCF29
:104A280017F082C118F07DC119F044EC3BF0010188
:104A380020EE03F063D865C13EF166C13FF1416BDA
:104A4800406BB6EC22F00101866F865102E169D80D
:104A5800D4E1865101E069D73BD830D8FBEC3EF071
:104A68000101866F865101E060D720EE1AF03AD82E
:104A7800DECF0EF0DDCF0FF0116A106A136A200E38
:104A8800126E21EC46F049D82DD8DECF0EF0DDCFDE
:104A98000FF03BD80B0E126E18EC44F03ED822D81B
:104AA80000EE0CF0F1EC20F020EE27F01BD8DF50E0
:104AB800180BEF6E20EE03F021D837D7DA22DECFBD
:104AC800F4F0DECFF5F0DECFF6F0DECFF7F012002F
:104AD80084C1F2F085C1F3F020EE16F06551D926B5
:104AE800665112006551D9266651DA22120020EE6D
:104AF8000BF08451D9268551DA2212008451D92627
:104B08008551DA22010EDF6E010C1C0E6525106E30
:104B1800000E6621116E136A1200010120EE1AF0D0
:104B280012008207D8A08307825183111200870ED2
:104B38000101066F010E076F9D0E086F010E80ECD4
:104B480029F0C3EC09F001019F6F9F5101E00ED1DC
:104B58009DC1A0F19EC1A1F1A00E656F010E666F07
:104B680087C167F188C168F1F8EC33F09F6F9F51F6
:104B780002E1080E9F6F040E9F1901E0F7D0A00E06
:104B8800216F010E226F28D92AEC1CF021C197F160
:104B980022C198F123C199F124C19AF120EE09F0BC
:104BA8009D51D9269E51DA22DECF89F1DDCF8AF1D7
:104BB80089518B6F8A518C6F8D6B8E6B090ED890D3
:104BC8008B378C378D378E37E82EF9D78BC1AAF102
:104BD8008CC1ABF18DC1ACF18EC1ADF19F6B97511A
:104BE800981199119A1102E1070E9F6F9705981174
:104BF80099119A1102E1020E9F6F972908E19829ED
:104C080006E1992904E19A2902E1010E9F6F9F515B
:104C180008E19DC1E0F09EC1E1F09BEC36F0010196
:104C28009F6F4FEC38F00EC093F10FC094F110C095
:104C380095F111C096F101019F5164E19DC1F2F017
:104C48009EC1F3F097C1F4F098C1F5F099C1F6F060
:104C58009AC1F7F0C5EC37F001019F6F9F5152E1FF
:104C6800310E9D259B6F000E9E219C6F9BC10EF0FF
:104C78009CC10FF0F5EC19F021EC46F09BC1D9FF6F
:104C88009CC1DAFF2E0EDF6E94D872D8F3EC44F094
:104C98009DC112F07FD8B7EC44F0200E01019B258E
:104CA8000E6E000E9C210F6E9BC110F09CC111F07E
:104CB80098D818EC44F0010120EE21F09B51D92638
:104CC8009C51DA222E0EDF6EA6C18FF1A7C190F19A
:104CD800A8C191F1A9C192F19DC112F09EC113F032
:104CE800200E9B25146E000E9C21156E8FC116F0A8
:104CF80090C117F091C118F092C119F0B7EC44F0C7
:104D0800010161D89F5107E1A00E656F010E666F22
:104D180031EC24F09F6F9F5119E1BAC19BF1BBC1DF
:104D28009CF126D8F3EC44F09DC112F033D8B7ECCF
:104D380044F03FD848D89F5119E19DC1F2F09EC177
:104D4800F3F051EC30F001019F6F10D0A00E216FED
:104D5800010E226F97C123F198C124F199C125F161
:104D68009AC126F1D3EC2DF091EC32F09F5112004C
:104D7800160E9B250001606F000E01019C210001A9
:104D8800616F93C162F094C163F095C164F096C1FC
:104D980065F012009EC113F09BC114F09CC115F080
:104DA80097C116F098C117F099C118F09AC119F077
:104DB8001200010120EE0BF09B51D9269C51DA22FA
:104DC800100EDF6E100C20EE03F09D51D9269E5177
:104DD800DA22010EDF6E010C236B246B256B266B28
:104DE8001200136A200E126E200C00C1D9FF01C1F7
:104DF800DAFFDECF18F1DDCF19F1010105510411F9
:104E0800031103E1020E025D0FE320EE15F01851C5
:104E1800D9261951DA22DE50025DDE500359DE50E0
:104E28000459DE50055907E3010E126F000E136B8B
:104E3800146B156BA9D0126913691469156997D099
:104E480002C116F103C117F1D8901731076F163157
:104E5800066F06511627075117239FD8C0D8FBECB9
:104E68003EF0000901E090D00101D8D8A9D8FED8B9
:104E7800106F116B164B172B90D8B1D8FBEC3EF086
:104E8800000901E081D00101C9D89AD8EFD80D6F87
:104E98000C6B0C5110130D51111302B106D01051A7
:104EA8000E6F0F0E11150F6F0FD010C106F111C143
:104EB80007F1040E086FD89007330633082FFBD785
:104EC80006C10EF107C10FF10EC112F10FC113F1A6
:104ED8001CD063D803510A6F04510B6F05510C6F36
:104EE8000D6BA4D8FBEC3EF000094EE10101B6D8E9
:104EF800B1D866D8396E000E0B213A6E47EC45F0F2
:104F080039C012F13AC013F10101146B156B3CD092
:104F180044D802C10AF103C10BF104C10CF105C167
:104F28000DF1080E05D0D8900D330C330B330A332E
:104F3800E82EF9D77BD8FBEC3EF0000925E101010A
:104F48008DD8D8900837093785D83AD80E6E000E14
:104F58000B210F6E43EC42F00E500101126F0F50FF
:104F6800136F1050146F0F0E1114156F0DD018C158
:104F7800D9FF19C1DAFFDF50010A01E161D7030A3D
:104F8800A8E0010AC5E050D712C100F113C101F130
:104F980014C102F115C103F1120018C1F2F019C1D0
:104FA800F3F020EE21F01851D9261951DA22DECF7C
:104FB80006F1DECF07F1DECF08F1DECF09F11200EE
:104FC800065108170751091718C10AF119C10BF141
:104FD80008510A2709510B23310E0A25120016C160
:104FE8000AF117C10BF1090E0C6FD8900B330A3375
:104FF8000C2FFBD70A5106250001F46F01010B5154
:1050080007210001F56F000E010108210001F66F6C
:10501800000E010109210001F76F12000669010E57
:10502800076F16C108F117C109F1010C06510A25CD
:105038000001F46F010107510B210001F56F010117
:1050480008510C210001F66F010109510D210001E1
:10505800F76F1200D8900837093712000669010E59
:10506800076F02C108F103C109F1010CD96E000EE6
:105078000B21DA6EDF501200890E0E6E010E0F6ED4
:105088005FEC39F0870E0101066F010E076F280EDD
:10509800086F020E31D9C3EC09F002012A6F2A51B8
:1050A80001E018D128C22BF229C22CF22B0E0101E3
:1050B800656F020E666F87C167F188C168F1F8EC09
:1050C80033F002012A6F2A5109E152C28BF1A00E76
:1050D80001018B1703E0060E02012A6F02012A5113
:1050E80001E0F8D0000E0E6E020E0F6E45C210F0F1
:1050F80046C211F0F5EC26F018EC44F0570E0E6E8F
:10510800020E0F6E2B0E106E020E116E136A2C0E0D
:10511800126E18EC44F0570E0101656F020E666FAF
:1051280089C167F18AC168F1F8EC33F002012A6F8E
:105138002A5120E131515D1915E132515E1912E110
:1051480033515F190FE1345160190CE13951651978
:1051580009E13A51661906E13B51671903E13C51EF
:10516800681903E0216B080E02D0216B040E206F32
:1051780020C22AF2040E2A1901E097D0570E010125
:10518800656F020E666F31EC24F002012A6F2A5116
:1051980001E08BD071C226F272C227F20D0E2625CD
:1051A8000E6E000E27210F6E0D0E106E020E116E80
:1051B800136A130E126E18EC44F002018DD80BC25C
:1051C800DFFF8AD8DFB803D087D8000EDB8A8BD8F8
:1051D80083D8DFA86AD05D51311909E15E513219CF
:1051E80006E15F51331903E1605134195EE028C2CA
:1051F8002DF029C22EF028C2DDF029C2DEF026C229
:10520800DFF027C2E0F068EC41F0DDC02FF0DEC02F
:1052180030F0DFC031F0E0C032F0FEEC3DF02DC0E0
:1052280022F22EC023F22FC024F230C025F2020150
:10523800225123112411251103E1020E2A6F35D0C2
:1052480028C2F2F029C2F3F022C2F4F023C2F5F02A
:1052580024C2F6F025C2F7F0FBEC3EF002012A6FFB
:10526800510E2825266F000E2921276F2A511DE18E
:1052780020EE01F02651D9262751DA222E0EDE180B
:1052880014E128C212F029C213F026C214F027C272
:1052980015F05DC216F05EC217F05FC218F060C26A
:1052A80019F0B7EC44F002011ED82A5113E12B0E75
:1052B8000001FC6F020EFD6FD8EC38F002012A6F76
:1052C8002A5108E128C2F2F029C2F3F051EC30F07B
:1052D80002012A6F2A51120020EE0BF02651D9261E
:1052E8002751DA22120020EE03F02851D92629513D
:1052F800DA22010EDF6E010C096F020E0A6F020C32
:105308001AC1D9FF1BC1DAFFDECF36F1DDCF37F185
:1053180001011F5109E1200E1E5DD8B0020C1CC10D
:1053280020F11F0E201701E0020C20EE0EF011D91B
:105338001CC1DEFF1DC1DEFF1EC1DEFF1FC1DEFF77
:1053480020EE06F006D90FD917D90BE136C1D9FFDF
:1053580037C1DAFF020EDF6404D020EE25F0FED854
:1053680002D90AD92AE120EE07F03651E4D81CC147
:1053780026F11DC127F11EC128F11FC129F1060E12
:1053880005D0D8902933283327332633E82EF9D788
:105398002251265D2351275924512859255129592D
:1053A80001E3020C20EE25F0D9D800EE16F01A51D0
:1053B800E9261B51DAEC17F06FD020EE09F03651D0
:1053C800BAD8090ED8902237233724372537E82E44
:1053D800F9D722C12EF123C12FF124C130F125C103
:1053E80031F13DD01AC100F11BC101F132C102F106
:1053F80033C103F134C104F135C105F1F9EC26F0EC
:1054080000C132F101C133F102C134F103C135F1F8
:105418000101322907E1332905E1342903E135295E
:1054280001E1010C35513411331104E1020E325DF2
:10543800D8A0020C20EE15F091D8DE50325DDE5077
:105448003359DE503459DE50355901E3020C2E51E0
:105458001C5F2F511D5B30511E5B31511F5B2E515C
:105468001C5D2F511D5930511E5931511F59BAE237
:1054780036C12DF037C12EF032C12FF033C130F0D4
:1054880034C131F035C132F0FEEC3DF0010120EEBF
:1054980016F05FD81DEC24F020EE12F05AD832C175
:1054A800DEFF33C1DEFF34C1DEFF35C1DEFF20EE93
:1054B80016F01A51D9261B5109EC24F001E1020C0F
:1054C8001CC120F11DC121F11EC122F11FC123F110
:1054D8000A0E05D0D8902333223321332033E82E07
:1054E800F9D720EE16F035D82051DE262151DE22DC
:1054F8002251DE222351DE222069010E216F1CC1B8
:1055080022F11DC123F1205122172151231736C141
:1055180024F137C125F12251242723512523310EA7
:105528002427000E252320EE1AF013D824C1DEFF0D
:1055380025C1DDFF000CD9263751DA22DECF20F154
:10554800DDCF21F12051226F2151236F246B256B70
:1055580012001A51D9261B51DA2212003651D926C7
:105568003751DA221200DECF32F1DECF33F1DECF4F
:1055780034F1DECF35F112003251331134113511C7
:1055880012004D0E066F010E076F7C0E086F010E9C
:10559800096F0A6BC3EC09F001017B6F7B5101E0D5
:1055A800FBD051C1D9FF52C1DAFF7CC1DEFF7DC1FA
:1055B800DDFF20EE11F0F2D800EE15F07C51E9265F
:1055C8007D51EA22FE0EEE24576FFF0EEE20586F33
:1055D800FF0EEE20596FFF0EEE205A6FDE50575D1A
:1055E800DE505859DE505959DE505A590AE320EE18
:1055F80011F0D4D84FC1E9FF50C1EAFFECD8EBD87D
:10560800CBD06D6B6E6B6F6B706BEAD8DE044AE1C2
:10561800020E756F766B776B786B7CC15BF17DC121
:105628005CF15B0E006F010E016F75C102F176C16E
:1056380003F177C104F178C105F1F9EC26F000C156
:1056480071F101C172F102C173F103C174F1010179
:10565800712908E1722906E1732904E1742902E13C
:10566800010E06D0710572117311741103E1020E57
:105678007B6F84D0715172117311741101E1A5D837
:1056880020EE15F08BD8752B000E76237723782320
:10569800DE50755DDE507659DE507759DE50785908
:1056A8006DE2BFD720EE15F079D8DECF75F1DECFE9
:1056B80076F1DECF77F1DECF78F120EE21F06ED8EB
:1056C800DECF69F1DECF6AF1DECF6BF1DECF6CF1B0
:1056D800796B7A6B79517A1117E17CC1F2F07DC14F
:1056E800F3F069C1F4F06AC1F5F06BC1F6F06CC172
:1056F800F7F0FBEC3EF001017B6F692B000E6A238B
:105708006B236C237B513AE16BD8020EDE180FE154
:105718004AD8396E000E54213A6E47EC45F039509C
:105728003A1002E1010151D8020E010118D03BD80C
:105738000E6E000E54210F6E43EC42F00E50010124
:10574800556F0F50566F1050576F0F0E1114586F3A
:10575800555156115711581101E137D8040E7927C0
:10576800000E7A23010E7A177507000E765B775BB9
:10577800785B7551761177117811ACE14FC1D9FF7B
:1057880050C1DAFF19D820EE11F008D815D820EE4C
:1057980004F004D8000EDB807B5112007C51D9261E
:1057A8007D51DA22120079517C25536F7A517D217F
:1057B800546F310E532512006DC1DEFF6EC1DEFF3E
:1057C8006FC1DEFF70C1DEFF12006D2B000E6E236D
:1057D8006F237023000CDECFEEFFDECFEEFF12004A
:1057E8007CC1D9FF7DC1DAFF1200FCC0D9FFFDC022
:1057F800DAFFDECF5EF1DDCF5FF1FCC01AF1FDC04C
:105808001BF1000E01011C6F1D6F1E6F1F6F84ECD2
:1058180029F0646F645103E001016451120060696A
:10582800D1D8CBD8D4D85EC1F2F05FC1F3F0000173
:1058380020EE16F0FC51D926FD5162EC25F0FBEC68
:105848003EF00101646F6451E7E1AFD8DECFFEF0AE
:10585800DDCFFFF0FEC0D9FFFFC0DAFFDF50010146
:10586800636F635103E1040E646FD6D79ED800EED0
:105878000BF0F1EC20F0EF503F0B0101616F0001DC
:1058880020EE04F09AD861C1DFFFE50E010163192B
:105898007BE061A704D00F0E611901E075D00F0EEF
:1058A80061194CE199D889D8DFBC71D0010163AD89
:1058B80016D07BD800EE0DF0F1EC20F0EF5001018E
:1058C800606F639D63C162F1000120EE0EF075D830
:1058D80000EE28F0FC51E926FD51DAEC17F0010141
:1058E800625163191DE161D800EE0DF0F1EC20F072
:1058F80001016051EE1814E120EE0BF05E51D9263B
:105908005F51DA22DECFDDF0DDCFDEF04ED8DECF1C
:10591800DFF0DDCFE0F0ABEC34F0DD51DE1104E177
:1059280001015D6B5C6907D0FF0E010162255C6FA8
:105938005D6BFF0E5D235CC162F129D0625109E104
:1059480034D8B0EC2EF0D5EC44F00101601901E137
:1059580063D742D832D8DFB016D020EE1AF02DD84F
:10596800DECF0EF0DDCF0FF01C0EFC25106E000E02
:10597800FD21116E136A0B0E126E77EC42F00E5079
:105988000F1001E149D701011DD817D820D8FCC054
:105998003EF1FDC03FF1B1EC40F0B6EC22F0010160
:1059A800646F645101E038D73ED7000120EE1AF049
:1059B800FC51D926FD51DA221200FC51D926FD519D
:1059C800DA2212006269000120EE28F01200DE6877
:1059D800DE68DE68DD681200000120EE27F01200A4
:1059E800FCC010F0FDC011F0420E126E010E136ED5
:1059F80096EC3FF00101486F485107E1CCD8BBD87D
:105A0800DF500101486F485103E00101485112007D
:105A1800BED8B1D8DFA2070C20EE0AF0ACD800EE51
:105A280010F0C7D82DEC10F0F0E220EE10F0FC5189
:105A3800D926FD5109EC24F018E1BFD820EE06F074
:105A48009AD8DECF23F1DECF24F1DECF25F1DECFE9
:105A580026F10101A4D891EC32F0486F000120EE44
:105A680006F089D8EEEC17F04CD0FCC000F1FDC070
:105A780001F120EE14F07FD895EC12F0F9EC26F045
:105A880000C144F101C145F102C146F103C147F12A
:105A98000101486B442908E1452906E1462904E14A
:105AA800472902E1010E486F440545114611471187
:105AB80002E1020E486F485124E120EE15F074D837
:105AC800DE50445DDE504559DE504659DE50475998
:105AD80018E273D844C123F145C124F146C125F128
