:04000000803118280B
:100008007E14803120007F08F0000B1F1328210088
:10001800931D13282000931D13288231272270086E
:100028002000FF007E10090080311A28FA01FB0128
:100038002000A001A101A201A301A401A501A6011C
:10004800A701A801A901AA01AB017E1020008131F6
:10005800432936297B080319452882313322803108
:1000680074082000A3007308A2007208A100710898
:10007800A000AB01AB0A7B08F5007508AA007A104E
:1000880041292000AA01003008007B0803199A289A
:100098007B082A06031D89282009F5002109F60096
:1000A8002209F7002309F800F50A0319F60A0319CB
:1000B800F70A0319F80A8231332280317108F507EB
:1000C8007208F63D7308F73D7408F83D7808031D7B
:1000D80077287708031D77287608031D77281530B9
:1000E8007502031C41290230F50075082000AB0099
:1000F8008231332274082000A3007308A20072081A
:10010800A1007108A0007B0808007B08F5007508AD
:10011800AA0082313322803174082000A3007308BA
:10012800A2007208A1007108A0004129AB01412971
:100138007B08031941290330F5007508AB008231AB
:10014800332274082000A3007308A2007208A100DB
:100158007108A0007B0808007B080319E6287B08C3
:100168002A0603197A1841292009F5002109F60001
:100178002209F7002309F800F50A0319F60A0319FA
:10018800F70A0319F80A8231332280317108F5071A
:100198007208F63D7308F73D7408F83D7808031DAA
:1001A800DE287708031DDE28D13075020730763B3C
:1001B800031C41297A140430F50075082000AB00AF
:1001C8007B08080082313322803174082000A300A4
:1001D8007308A2007208A1007108A00005302F2939
:1001E8007B08031941290330F5007508AB007B082B
:1001F80008007B08031D2E292009F5002109F600B7
:100208002209F7002309F800F50A0319F60A031969
:10021800F70A0319F80A8231332280317108F50789
:100228007208F63D7308F73D7408F83D7808031D19
:1002380027297708031D27297608031D2729153044
:100248007502031C41290630F50075082000AB0033
:100258002A0808000330F5007508AB004129AB01F6
:100268002A08080020002B0884000730040203181D
:100278004129823104350D3E820000300800823168
:100288001B2281313D30F1000230F20082314E22D2
:1002980081318B170B1722000D168D160D178D1730
:1002A80015302000AD004B30AC00BE30890B5A2908
:1002B800AC0B5A29AD0B5A29000022000D128D12E1
:1002C800B729031022000D1E0314031C6E292200F7
:1002D8000D16C62922000D12C629031022008D1EF4
:1002E8000314031C7A2922008D16C62922008729A7
:1002F800031022000D1E0314031C852922000D166D
:10030800872922000D128D12C62920002B08023AD7
:1003180003196529063A03197129023A03197C2938
:10032800C629C629031022000D1F0314031C9F2988
:1003380022000D17C62922000D13C629031022001A
:100348008D1F0314031CAB2922008D17C629220018
:10035800B829031022000D1F0314031CB62922001C
:100368000D17B82922000D138D13C62920002B085C
:10037800023A03199629063A0319A229023A0319DF
:10038800AD29C6298131FD218131013A0319892915
:10039800033A0319BA29C629C62922008C018D01FE
:1003A800FF3021008C000F308D000C3023008D00B1
:1003B8001F308C000F3024008D0020308C0021006D
:1003C800951322009E019D0108000A3028009E0016
:1003D800F9309D009C0120009311210093155B309A
:1003E800F1000230F20082314E22813182315822EE
:1003F8000800FB0120000D18042AFB01FB0A0A2A49
:100408008D180A2A0230F9007908FB0080312D2066
:10041800080080312E288031492880319C2880317D
:10042800B0288031F4288031FD2881313329813189
:10043800D121823182314722823182315422823164
:100448008131E921080020009311280829040319A3
:10045800080029088A0028080A00823108002000BC
:100468002708F4002608F3002508F2002408F10004
:10047800080001302000A4070030A53D0030A63D4B
:100488000030A73D080070302100990098011A1B20
:1004980008004B2A72082000A9007108A80008006B
:1004A800163021009700080028001E1508000800D3
:020000040001F9
:04000E00E4FFFFDF2D
:00000001FF
