:08000000803102288731FA2F3C
:1007B000B13416302100970008003830210099002C
:1007C00098011A1B0800E12B8431122483318331F4
:1007D000DD2383318331D9230800F300F201731C38
:1007E000F52B7008F1007108F2070310F00D0310EB
:1007F000F30C7308031DEF2B72080800F6002200AB
:100800008D11760840388431622483310630F5003A
:100810007508F00074088331ED238331803884310A
:100820006224080022008C018D01FF3021008C0021
:1008300006308D00FE3023008D001F308C00FF300D
:1008400024008D0020308C002100951322009E0191
:100850009D010800F401F501701C322C7208F407A8
:100860007308F53D0130F235F30D890B332C01305F
:10087000F136F00C890B382C70087104031D2C2CF8
:100880007508F1007408F0000800FD007908FC000C
:100890007C08F4007D088331FE2384317A088400CB
:1008A0007B088500000885319E2584310130FA07D8
:1008B0000030FB3D7A0884007B0885001200031994
:1008C00008004E2CF10022000D13F20108307202D4
:1008D0000318852C7135F0007008F1002000031C0E
:1008E000742C22000D16762C22000D128D1600326B
:1008F00000320032003222008D120130F000700808
:10090000F20708307202031C6A2C0D170800210040
:100910000D138D120D128D118D1322000D128D12DB
:100920008D118D138D178D11213084316224843106
:1009300020003908843162248431043084316224F7
:100940008431143084316224843120308431622433
:1009500084310C30843162240800F401003083318A
:10096000FE23843122008D15F801F9017908803ABF
:10097000F70081307702031DBF2CF830780203188E
:10098000D42C00308431622484310130F8070030E7
:10099000F93D7908803AF70081307702031DD22CA7
:1009A000F8307802031CC12CF40100308331FE239F
:1009B0000800780879040319002DFD01FD0AF91BD0
:1009C000EB2C0130F835F90D890BE22C0130FC00DD
:1009D0007C08FD07DF2C79087B02031DF12C7808C9
:1009E0007A02031CF72C7808FA027908FB3B0130E5
:1009F000F936F80C890BF82C0130FD02031DEB2CA5
:100A00007B08F9007A08F8000800F501F601700883
:100A100071040319342DF701F70AF11B192D013068
:100A2000F035F10D890B102D0130F4007408F70733
:100A30000D2D0130F535F60D890B1A2D7108730255
:100A4000031D242D70087202031C2B2D7008F20266
:100A50007108F33B75140130F136F00C890B2C2D25
:100A60000130F702031D192D7608F1007508F0001A
:100A700008002000B701B8018331E42385318431B7
:100A8000872485318431AD248531F9017B30FA002A
:100A90008D30FB000030843145248531F7018930E9
:100AA000F8008D30F900FA010130873119278531BE
:100AB000F7018930F8008D30F900FA01FA0A0330A5
:100AC00087311927853152302000B0002B30AF001C
:100AD0000030890B692DAF0B692DB00B692D00001B
:100AE0008431AD24853190302000A0008D30A100EC
:100AF0003808A3003708A200313086314C268531F2
:100B000001302000B7070030B83DF7013130F80060
:100B10000030F900FA01FA0A0130873119278531CE
:100B20000B302000B0002630AF005D30890B962DD1
:100B3000AF0B962DB00B962D0032732DF6002200D0
:100B40008D15D22DDB30B12DE030B12DE530B12D3A
:100B5000EA30B12DEF30B12DF430B12DF930B12D97
:100B6000FE30F7000130BD2D0330BB2D0830BB2D0A
:100B70000D30BB2D1230F7000230F800F82D76084A
:100B8000E03EF000FF3003180030F1000530F200C5
:100B90000030F30084312A2485317108F800700890
:100BA000F700F82D7608C73A0319A22D173A031952
:100BB000A42D063A0319A62D0A3A0319A82D013AC5
:100BC0000319AA2D033A0319AC2D393A0319AE2D96
:100BD000173A0319B02D063A0319B42D0A3A03192E
:100BE000B62D013A0319B82D033A0319BA2DBF2DBA
:100BF0007808850077088400223084078A30853D94
:100C000000088431622485310130F7070030F83D57
:100C10007808850077088400223084078A30853D73
:100C200000088431622485310130F7070030F83D37
:100C30007808850077088400223084078A30853D53
:100C400000088431622485310130F7070030F83D17
:100C50007808850077088400223084078A30853D33
:100C600000088431622485310130F7070030F83DF7
:100C70007808850077088400223084078A30853D13
:100C800000088431622485310130F7070030F83DD7
:100C900000308431622408002000AD002230A4001E
:100CA0002408A8002108A5002008A400A00A031910
:100CB000A10A24088400250885000008A60026084B
:100CC000AE002E080319142F25302E060319742E9A
:100CD0002E08A4002D088600870124088100013019
:100CE000A4002408AD07522EA9012108A500200860
:100CF000A400A00A0319A10A24088400250885007D
:100D00000008AE00003A0319142F643A03198C2E20
:100D10000D3A03198C2E522E280886008701403F79
:100D2000AB00413FAC000230A4002408A807AC1F70
:100D3000A22E0330A4002408A904AB09AC09AB0A15
:100D40000319AC0AAE01AE0A05302E060319C72EF0
:100D50002E08A400A501A435A50D71302407840038
:100D60008D30253D8500003FA600013FA7002708E4
:100D70002C02031DBD2E26082B02031CC72E01309A
:100D8000A4002408AE0705302E06031DA82E29084E
:100D900003390319D62E2D30A4002D0886008701B3
:100DA000240881000130A4002408AD072E08A40007
:100DB0002408AA00FF30A4002408AA072A0A03195D
:100DC000522E0A30F8000030F9002A08A400A501CC
:100DD000A435A50D7130240784008D30253D850094
:100DE000003FF000013FF1002C08F3002B08F20057
:100DF0008531052586317108FB007008FA008431C1
:100E0000D92486317808303E2000A6002608AE009E
:100E10002E08A4002D0886008701240881000130D7
:100E2000A4002408AD07DA2E2D0886008701810171
:100E300008002000A0007A08031D202F0230212F77
:100E40000330FB007B08A100A80121082802031839
:100E500008007708FB007B08F4002008280783318E
:100E6000FE23873179082000A3007808A200220021
:100E70008D15200022088400230885000008FB004F
:100E80007B08A7000130A2070030A33D7A08031DAC
:100E9000902F2808031D602F2708D33EF000FF3055
:100EA00003180030F1001830F2000030F3008431F4
:100EB0002A24873171082000A5007008A400752F2E
:100EC0002708D33EF000FF3003180030F10018303F
:100ED000F2000030F30084312A24873170080C3E80
:100EE0002000A4000030713DA500A6010C302602B0
:100EF0000318EE2F25088500240884003930840764
:100F00008C30853D00088431622487310130200017
:100F1000A4070030A53D0130FB007B08A607762F13
:100F20002808031DA72F2708D33EF000FF30031821
:100F30000030F1002A30F2000030F30084312A241E
:100F4000873171082000A5007008A400D02F280365
:100F5000031DBB2F2708D33EF000FF3003180030DD
:100F6000F1002A30F2000030F30084312A24873166
:100F700070080E3ECB2F2708D33EF000FF30031839
:100F80000030F1002A30F2000030F30084312A24CE
:100F9000873170081C3E2000A4000030713DA50080
:100FA000A6010E3026020318EE2F2508850024081E
:100FB0008400003084078830853D00088431622435
:100FC000873101302000A4070030A53D0130FB002F
:100FD0007B08A6070E302602031CD52F22088400AA
:100FE000230885001200031D372F0130FB007B080A
:100FF000A807252F8331D823B90020008531392D4A
:101000000034003400340034003400340034003440
:101010000034003400340034003400340034003430
:101020001034383438343834383438343834383488
:1010300038341034003400340034003400340034C8
:101040000034003400340034003400340034003400
:1010500000340034003400340034003400340034F0
:1010600000340034003400340034003400340034E0
:1010700000340034003400340034003400340034D0
:1010800000340034003400340034003400340034C0
:101090000034003400344034E034E0344034003470
:1010A0000034003400340034003400340234063498
:1010B0000E340E340E340E340E340E340634023434
:1010C00000340034003400341034383438343834C8
:1010D0003834383438343834383410340034003448
:1010E000003400348034C034E034E034E034E034A0
:1010F000E034E034C0348034003400340034FC3454
:10110000FA34F6340E340E340E340E340E340E34FB
:10111000F634FA34FC3400340034EF34C73483340A
:101120000034003400340034003400348334C734D5
:10113000EF34003400347F34BF34DF34E034E03443
:10114000E034E034E034E034DF34BF347F34003462
:1011500000340034003400340034003400340034EF
:1011600000340034F034F834FC34003400340034FB
:1011700000340034003400340034003400340034CF
:101180008334C734EF340034003400340034003486
:101190000034003400340034003400341F343F3451
:1011A0007F34003400340034023406340E340E34FC
:1011B0000E340E340E340E34F634FA34FC3400346B
:1011C0000034E034D034B834383438343834383437
:1011D000383438343B3417340F34003400347F341F
:1011E000BF34DF34E034E034E034E034E034E03481
:1011F000C034803400340034003400340234063407
:101200000E340E340E340E340E340E34F634FA34FA
:10121000FC3400340034003410343834383438347A
:101220003834383438343834BB34D734EF340034BD
:10123000003400348034C034E034E034E034E0344E
:10124000E034E034DF34BF347F3400340034FC3425
:10125000F834F03400340034003400340034003406
:10126000F034F834FC34003400340F3417343B3499
:10127000383438343834383438343834BB34D734EC
:10128000EF340034003400340034003400340034CF
:1012900000340034003400341F343F347F340034D1
:1012A0000034FC34FA34F6340E340E340E340E347A
:1012B0000E340E34063402340034003400340F345B
:1012C00017343B34383438343834383438343834DC
:1012D000B834D034E0340034003400348034C034C6
:1012E000E034E034E034E034E034E034DF34BF3480
:1012F0007F3400340034FC34FA34F6340E340E34C7
:101300000E340E340E340E340634023400340034FD
:101310000034EF34D734BB343834383438343834CC
:1013200038343834B834D034E034003400347F34C6
:10133000BF34DF34E034E034E034E034E034E0342F
:10134000DF34BF347F3400340034003402340634D8
:101350000E340E340E340E340E340E34F634FA34A9
:10136000FC340034003400340034003400340034E1
:1013700000340034003400348334C734EF34003494
:1013800000340034003400340034003400340034BD
:10139000003400341F343F347F3400340034FC34D4
:1013A000FA34F6340E340E340E340E340E340E3459
:1013B000F634FA34FC3400340034EF34D734BB3420
:1013C000383438343834383438343834BB34D7349B
:1013D000EF34003400347F34BF34DF34E034E034A1
:1013E000E034E034E034E034DF34BF347F340034C0
:1013F0000034FC34FA34F6340E340E340E340E3429
:101400000E340E34F634FA34FC34003400340F3425
:1014100017343B343834383438343834383438348A
:10142000BB34D734EF340034003400348034C0345B
:10143000E034E034E034E034E034E034DF34BF342E
:101440007F3400340034003400340034003400347D
:1014500000345F3400340034003403340034033487
:10146000003414343E3414343E34143424342A34D6
:101470007F342A34123443343334083466346134CC
:10148000363449345534223450340034053403346E
:101490000034003400341C3422344134003400342D
:1014A000413422341C340034143408343E340834BB
:1014B0001434083408343E340834083400345034CA
:1014C0003034003400340834083408340834083424
:1014D0000034603460340034003420341034083474
:1014E000043402343E345134493445343E340434F7
:1014F00002347F340034003442346134513449348E
:10150000463422344134493449343634183414349E
:1015100012347F341034273445344534453439345B
:101520003E3449344934493432340134013471345D
:10153000093407343634493449344934363426348E
:101540004934493449343E34003436343634003476
:101550000034003456343634003400340834143443
:101560002234413400341434143414341434143414
:1015700000344134223414340834023401345134F8
:10158000093406343E344134593455345E347E34A3
:101590000934093409347E347F34493449344934B8
:1015A00036343E3441344134413422347F34413482
:1015B000413441343E347F34493449344934413430
:1015C0007F3409340934093401343E344134413420
:1015D00049343A347F340834083408347F340034D2
:1015E00041347F344134003430344034403440346A
:1015F0003F347F3408341434223441347F3440344F
:101600004034403440347F3402340C3402347F346C
:101610007F340234043408347F343E34413441345E
:1016200041343E347F3409340934093406341E34DD
:101630002134213421345E347F34093409340934AF
:10164000763426344934493449343234013401344F
:101650007F34013401343F344034403440343F342B
:101660001F342034403420341F347F34203410346D
:1016700020347F34413422341C3422344134073442
:1016800008347034083407346134513449344534F3
:10169000433400347F3441340034003402340434A1
:1016A0000834103420340034003441347F340034A2
:1016B00004340234013402340434403440344034BD
:1016C00040344034003401340234043400342034D3
:1016D00054345434543478347F34443444344434AB
:1016E000383438344434443444344434383444345E
:1016F000443444347F3438345434543454341834F7
:10170000043404347E3405340534083454345434F9
:1017100054343C347F340834043404347834003492
:1017200044347D34403400342034403444343D3437
:1017300000347F34103428344434003400344134CD
:101740007F34403400347C340434783404347834C6
:101750007C34083404340434783438344434443425
:10176000443438347C341434143414340834083495
:101770001434143414347C3400347C340834043489
:101780000434483454345434543420340434043449
:101790003F34443444343C344034403420347C348A
:1017A0001C342034403420341C343C344034303435
:1017B00040343C34443428341034283444340C3419
:1017C0005034503450343C344434643454344C3405
:1017D0004434003408343634413441340034003465
:1017E0007F3400340034413441343634083400341A
:1017F000023401340234043402341E34213461349E
:10180000213412343D3442345234523475343C3431
:101810004334423443343C343C3441344034413426
:101820003C34003442347F3442340034463449344A
:101830006934493431341C34223462342234103453
:101840000D345234523452343D34383446344434F6
:10185000463438343C344134403421347C34003410
:1018600044347C344034003424342A346A342A34F6
:1018700010340034003400348034803480348034B8
:1018800080348034003400340034003400340134B7
:101890000334033403340334033403340134003495
:1018A0000034003400340034003400340034003498
:1018B0000034003400340034003400340034003488
:1018C00000340034C034C0340034003400340034F8
:1018D000003400340034023486348634863486344E
:1018E00086348634023400340034003400348134C9
:1018F000C334C334C334C334C334C3348134003435
:1019000000340034FC347A340634063406340634A9
:10191000063406347A34FC34003400347E34BC346B
:10192000C034C034C034C034C034C034BC347E345D
:101930000034003400340034003400340034003407
:10194000003400347834FC34003400340034003483
:101950000034003400340034003400343C347E342D
:1019600000340034003402348634863486348634BD
:10197000863486347A34FC34003400347E34BD340A
:10198000C334C334C334C334C334C33481340034A4
:10199000003400340034023486348634863486348D
:1019A000863486347A34FC34003400340034813494
:1019B000C334C334C334C334C334C334BD347E34BA
:1019C00000340034FC347834803480348034803403
:1019D000803480347834FC340034003400340134F2
:1019E0000334033403340334033403343D347E348A
:1019F00000340034FC347A348634863486348634B9
:101A000086348634023400340034003400348134A7
:101A1000C334C334C334C334C334C334BD347E3459
:101A200000340034FC347A34863486348634863488
:101A30008634863402340034003400347E34BD34BD
:101A4000C334C334C334C334C334C334BD347E3429
:101A500000340034003402340634063406340634CC
:101A6000063406347A34FC34003400340034003454
:101A70000034003400340034003400343C347E340C
:101A800000340034FC347A34863486348634863428
:101A9000863486347A34FC34003400347E34BD34E9
:101AA000C334C334C334C334C334C334BD347E34C9
:101AB00000340034FC347A348634863486348634F8
:101AC000863486347A34FC34003400340034813473
:101AD000C334C334C334C334C334C334BD347E3499
:101AE0000034013400340A34003464340034E834FF
:101AF000033410342734473445344E34C73420344B
:101B00004D3455344334DD3454344C34453452343C
:101B100000343134323433343434353436340034F0
:061B20002534643400349A
:020000040001F9
:04000E00E2FFFFDF2F
:00000001FF
