:0400000080312428FF
:100008007E14803120007F08FD000B1F1528210079
:10001800921D15282000921D15288531BA2580319A
:100028001F280B1F1F282100911D1F282000911D2C
:100038001F28803138207D082000FF007E1009002D
:1000480080312628F001F101F201F301F401F501F4
:10005800F6014B308400003085001630853192253A
:100068007E10200082312B2A200091112400951F38
:10007800672995132000D4017208023E8600870183
:100088000108860087018101810AF2010800CD1864
:1000980008004C08F9007908F2004C08860087012E
:1000A8000108F9007908F4004C0886008701413FEF
:1000B800F3000330F9007908CC074C08603A031DB7
:1000C80069285D30F9007908CC004D104C084B06C2
:1000D8000319CD14240016140230F9007908200001
:1000E800D4000800240096140230F9007908200092
:1000F800D40008002400161F8A280130F900790866
:100108002000CF07043085314E2508007608FA0014
:100118007508F900FA36F90C790824009100751C65
:100128009B280B30F90079082000D4000800033020
:10013800F90079082000D40008002400161FAD2813
:100148000130F90079082000CF07043085314E25A9
:10015800080096147608FA007508F9007A08F9007C
:10016800FA0106307905FB0000307A05FC00F03012
:100178007B04F50000307C04F60075142000D301E0
:10018800D30A0230F9007908D40008005303031990
:10019800DE28730886008701403FF500413FF600DE
:1001A800730886008701433FF100730886008701C2
:1001B800423FF000750824009100751CE9280530BD
:1001C800F90079082000D40008000330F900790804
:1001D8002000D40008002400161FFD280130F90073
:1001E80079082000CF0724001613053085314E25E5
:1001F80008000130F002700A031D16290430F900C6
:100208007908F3070130F402031D0E290030853107
:100218004E250800240096140230F90079082000C1
:10022800D4000800710886008701010824009100A5
:100238000130F9007908F10708002400161F2F295A
:100248000130F90079082000CF07043085314E25A8
:1002580024001613080096150830F90079082000C4
:10026800D40008000830F9007908D4002400961555
:10027800080024001108F900710886008701790830
:1002880081000130F9007908F1070130F002031903
:10029800542996120630F90079082000D40057290D
:1002A800961685316625240016160800003085311B
:1002B8004E2508000130F90079082000CF070630E4
:1002C80085314E2508002000540884000C300402B3
:1002D80003185E2985310435363E820008003C301B
:1002E8002000BE003E08C20020003B08BF003A08BC
:1002F800BE00BA0A0319BB0A3E0884003F088500FD
:100308000008C0004008C700470803190800253046
:10031800470603199429470885319825813178299A
:100328002000C3013B08BF003A08BE00BA0A0319FF
:10033800BB0A3E0884003F0885000008C700003A51
:1003480003192A2A643A0319AD290D3A0319AD296C
:100358007829420886008701403FC500413FC60012
:100368000230BE003E08C207C61FC3290330BE00C4
:100378003E08C304C509C609C50A0319C60AC70148
:10038800C70A053047060319E8294708BE00BF0118
:10039800BE35BF0DEB303E07840084303F3D8500FD
:1003A800003FC000013FC10041084602031DDE298D
:1003B80040084502031CE8290130BE003E08C70773
:1003C80005304706031DC929430803390319F029D5
:1003D8002D3085319825813120004708BE003E0820
:1003E800C400FF302000BE003E08C407440A0319B9
:1003F80078290A30A8000030A9004408BE00BF01CF
:10040800BE35BF0DEB303E07840084303F3D85008C
:10041800003FA000013FA1004608A3004508A20034
:1004280083319B23813120002108AB002008AA00DA
:1004380084310224813120002808303EC000400861
:10044800C7004708853198258131F529080085318D
:10045800782582318B170B1715302000C9004B30D7
:10046800C800BE30890B362AC80B362AC90B362A73
:1004780000008231F42282312000BD01BD0AF5302E
:10048800BE008430BF0001308431AB2482312000AB
:10049800CA0103304A0203187A2A8531A425823119
:1004A80015302000C9004B30C800BE30890B5A2ACD
:1004B800C80B5A2AC90B5A2A000085319E25823159
:1004C80015302000C9004B30C800BE30890B6A2A9D
:1004D800C80B6A2AC90B6A2A000001302000C8002C
:1004E8004808CA0703304A02031C512A1530200065
:1004F800C9004B30C800BE30890B802AC80B802A3F
:10050800C90B802A000005302000C8004808BD003B
:100518008430BE008530BF0002308431AB24823184
:1005280005302000C8004808B900023084315A2438
:100538008231B7302000BA008530BB005108BD00B9
:100548005008BC0081317321823101302000D0076E
:100558000030D13D7A2A2000A3004D18E32A02304A
:10056800A200210886008701220881002008A20035
:100578004B0A86008701220881002308A2004B0845
:1005880086008701220881002108A2004B08023E4C
:1005980086008701220881000330A2002208CB07C9
:1005A8004B08603A031DDC2A5D30A2002208CB000C
:1005B800CD104C084B06031DE82A4D14E82A2108E3
:1005C800860087018101810A21088600870102309F
:1005D8000106031D08005408031DEF2A91150800A1
:1005E800003084312F2482312000E00160080F3967
:1005F8002038B9003908E00083316523823134306E
:100608002000B900F130890B072BB90B072B0032FA
:10061800283083312F2382316A30890B112B003225
:100628000C3083312F2382316A30890B192B003229
:10063800063083312F23823115302000B900C630AF
:10064800890B242BB90B242B00008531AF2582316F
:1006580085319E2508002000B8008531AA25833100
:1006680020006010F0303805B60060080F393604F5
:10067800B7003708E0008331652383313430200028
:10068800B600F130890B462BB60B462B0032200002
:100698003808B6000430B635890B4F2B60080F397F
:1006A8003604B7003708E0008331652383313430DE
:1006B8002000B600F130890B5F2BB60B5F2B0032A0
:1006C800080020006008AE002E08B200601560081F
:1006D800AE002E08B30060116008AE002E08B4000A
:1006E800B001B1013503031908000330AE002E082C
:1006F800A7003F30A8000030A9003530AF002F0810
:10070800AA00323084318324833102302000350638
:100718000319892B3508031908000A3030063104FB
:10072800031908000130B0070030B13D762B2000D6
:10073800A501A601200821040319CB2BA701A70AAC
:10074800A11BB02B0130A035A10D890BA72B0130BF
:10075800A4002408A707A42B0130A535A60D890BF2
:10076800B12B21082302031DBB2B20082202031CE6
:10077800C22B2008A2022108A33B25140130A13670
:10078800A00C890BC32B0130A702031DB02B260830
:10079800A1002508A00008002000B8008531AA257E
:1007A800833120006014F0303805B60060080F3936
:1007B8003604B7003708E000833165238331E4301D
:1007C80000320032890BE42B003200322000380856
:1007D800B6000430B635890BEE2B60080F393604A5
:1007E800B7003708E000833165238331E4300032F5
:1007F8000032890BFB2B0032003208002000280849
:10080800290403192A2CAD01AD0AA91B152C0130A6
:10081800A835A90D890B0C2C0130AC002C08AD07AC
:10082800092C29082B02031D1B2C28082A02031C4B
:10083800212C2808AA022908AB3B0130A936A80CAC
:10084800890B222C0130AD02031D152C2B08A900A1
:100858002A08A80008002000AF002F08AE002E08C4
:10086800B200B001B101330303190800A701A70AB8
:100878003F30A8000030A9003330AE002E08AA008F
:100888003230843183248431023020003306031946
:10089800482C3308031908000A30300631040319BC
:1008A80008000130B0070030B13D372C2000BB00F4
:1008B8006C2C39087F3E682C3908BF3E682C3908F3
:1008C800933E682C3908D33EBA003A08BC007A2C0B
:1008D8003B08013A03195D2C033A0319602C013ACD
:1008E8000319632C073A0319662C7A2C3C088331C8
:1008F8002F238431A0300032890B7F2C0800200080
:10090800AD004D18A42C2D08AB002B08A00027081B
:10091800AC002C08A1002908A3002808A20059301F
:100928008431CB24843159302000AB002B08A0003F
:100938002A08AC002C08A10001308231AF2208003F
:1009480020002A08860087018101810A080020000A
:10095800C1003D08C0004008B900410884315A244C
:10096800843120003E0884003F0885000008833158
:10097800D023843101302000BE070030BF3D3E083F
:1009880084003F088500120003190800B52C2000D8
:10099800A6002308A5002208A400A435A50D260852
:1009A800860087012408C03F2508C13F2108A4000C
:1009B8002608023E86008701240881002008A4003A
:1009C8002608033E860087012408810008000134B8
:1009D80000340A34003464340034E8340334103406
:1009E80027344D3465347234683461346234613488
:1009F8002034443475346E347934613420343A34D4
:100A08002934003422008C018D01FF3021008C0034
:100A1800FF308D00EC3023008D001F308C00FF303C
:100A280024008D0020308C002100951322009E01A7
:100A38009D0108005D302000A0002008CC005D303A
:100A4800A0002008CB00CD144D10CF012400940144
:100A58002830950097014F30920020009111210015
:100A68009115080080314B28803176288031CA28BA
:100A78008031EF2881315A29813121298131362964
:100A880081315A2981313D2981315E2980317E2881
:100A98008031A128F800240016157208023E86004D
:100AA800870101080319632D7808F7007208023ED0
:100AB80086008701010886008701770881002000E9
:100AC800D40108000430F7007708F3070130F40276
:100AD800031D742D0430F70077082000D4000800A7
:100AE8002000D401D40A08008531062585318531D6
:100AF8008B2585318531B325853185311E25080043
:100B08002034203420342034203420340034703011
:100B18002100990098011A1B08008F2D640080019C
:100B28000131890B932D00342000B9003908833135
:100B3800D02308002000E015600884312F24080025
:100B48002000E011600884312F240800A030003212
:100B5800890BAB2D0800013083312F230800163094
:0E0B6800210097000800253464340034080092
:020000040001F9
:04000E00A4FFFFDF6D
:00000001FF
