:08000000803102288731F82F3E
:100C42001630210097000800013087312327080061
:100C5200A0300032890B2A2E08002000A315230899
:100C620086314C26080070302100990098011A1B29
:100C72000800382E22008D1420000D1421008D1042
:100C82000D14080086317F2686318631342686315E
:100C9200863121260800F40086316C2686317E30AA
:100CA2008731BD27863174088731BD278631863169
:100CB2005B26080021000D1020000D1022008D146B
:100CC2000A30890B622E003221000D140A30890B82
:100CD200682E0032080022008D140A30890B6F2E14
:100CE200003221000D1020000D100A30890B772EE2
:100CF200003222008D1021000D14080022008C0108
:100D02008D01FF3021008C00FF308D00FE3023006A
:100D12008D001F308C00FF3024008D0020308C00AD
:100D22002100951322009E019D01080086316C2648
:100D320086317E308731BD278631200023088731F6
:100D4200BD2786312000231523088731BD27863130
:100D52002000231123088731BD27863186315B2687
:100D620008002000A5007B08A4002408F70025083D
:100D72008631D02686317C0884007D0885000008F3
:100D82008731542786310130FC070030FD3D7C0855
:100D920084007D088500120003190800BC2EF900AA
:100DA200E12E77087F3EDD2E7708BF3EDD2E7708E5
:100DB200933EDD2E7708D33EF8007808FA00EF2E36
:100DC2007908013A0319D22E033A0319D52E013AB2
:100DD2000319D82E073A0319DB2EEF2E7A08873132
:100DE20023278631A0300032890BF42E0800863189
:100DF2004326863186313B26863115302000A700F6
:100E02004B30A600BE30890B042FA60B042FA70B74
:100E1200042F0000873185278631FB01FB0A003051
:100E2200FC008830FD0001308631B2268631FB019C
:100E3200FB0A1130FC008830FD0002308631B226F8
:100E42008631222FF6008631292687312000231091
:100E5200F0307605F40023080F397404F5007508A4
:100E6200A3008631972687313430F400F230890BA3
:100E7200382FF40B382F7608F4000430F435890B40
:100E82003F2F200023080F397404F5007508A300D2
:100E92008631972687313430F400F230890B4F2F98
:100EA200F40B4F2F0800F6008631292687312000E7
:100EB2002314F0307605F40023080F397404F5008A
:100EC2007508A300863197268731E430003200325C
:100ED200890B672F003200327608F4000430F435B3
:100EE200890B702F200023080F397404F500750850
:100EF200A300863197268731E43000320032890B15
:100F02007E2F003200320800003086314C268731B5
:100F12002000A30123080F392038F7007708A30027
:100F22008631972687313430F700F230890B972FBC
:100F3200F70B972F28308731232787316A30890BA7
:100F4200A02F00320C308731232787316A30890B7A
:100F5200A82F003206308731232787311530F7005A
:100F6200C630890BB22FF70BB22F003286312526FD
:100F7200873186312E260800F20022008D100830BB
:100F8200F0007008F30073080319E62F7235F000C1
:100F92007008F20020000318D32F21000D1020004A
:100FA2000D10D72F21000D1420000D1422008D14D6
:100FB2000A30890BDA2F003222008D1021000D1425
:100FC2000130F3027308031DC72F22008D10210088
:100FD2000D140A30890BEB2F003222008D140030E1
:100FE20020000D180130F10022008D1008002000B1
:100FF200A001A101A201A30120008631F82E4D34E7
:101002006534723468346134623461342034443477
:1010120075346E347934613420343A3429340034EE
:1010220053346F34663474342034493432344334A4
:0A10320020344C346334643400347D
:020000040001F9
:04000E00E4FFFFDF2D
:00000001FF
