:04000000803118280B
:100008007E14803120007F08F0000B1F1328210088
:10001800931D13282000931D132882317122700824
:100028002000FF007E10090080311A28F901FA012A
:10003800FB01203084000030850010308231A1227D
:100048007E1020008131B929AC297B080319412889
:1000580082317D22803174082000A7007308A60031
:100068007208A5007108A400AF01AF0A7B08F5006B
:100078007508FA00F9107910B729FA01003008005C
:100088007B08031996287B087A06031D852820001B
:100098002409F5002509F6002609F7002709F800C4
:1000A800F50A0319F60A0319F70A0319F80A82313F
:1000B8007D2280317108F5077208F63D7308F73D17
:1000C8007408F83D7808031D73287708031D732802
:1000D8007608031D732815307502031CB7290230F2
:1000E800F50075082000AF0082317D2274082000D9
:1000F800A7007308A6007208A5007108A4007B0871
:1001080008007B08F5007508FA0082317D228031ED
:1001180074082000A7007308A6007208A5007108DB
:10012800A400B7292000AF01B7297B080319B72914
:100138000330F5007508AF0082317D227408200075
:10014800A7007308A6007208A5007108A4007B0820
:1001580008007B08031917297B087A06031DB729AD
:100168007918E4282409F5002509F6002609F7007E
:100178002709F800F50A0319F60A0319F70A0319FB
:10018800F80A82317D2280317108F5077208F63D40
:100198007308F73D7408F83D7808031DDC287708D4
:1001A800031DDC282D3075020130763B031CE42842
:1001B80079140530F50075082000AF007B080800A9
:1001C800F918152920002409F5002509F600260943
:1001D800F7002709F800F50A0319F60A0319F70AC0
:1001E8000319F80A82317D2280317108F5077208F7
:1001F800F63D7308F73D7408F83D7808031D0D298E
:100208007708031D0D29DD3075020530763B031C88
:100218001529F9140630F50075082000AF007B0891
:1002280008007B08080082317D2280317408200094
:10023800A7007308A6007208A5007108A40007307B
:1002480060297B080319B7290330F5007508AF004A
:100258007B0808007B08031D5F292409F500250990
:10026800F6002609F7002709F800F50A0319F60A27
:100278000319F70A0319F80A82317D2280317108BF
:10028800F5077208F63D7308F73D7408F83D7808DD
:10029800031D58297708031D58297608031D582976
:1002A80015307502031CB7290830F50075082000C1
:1002B800AF007A0808000330F5007508AF00B729C9
:1002C800AF017A0808007A082E06031D992920092B
:1002D800F5002109F6002209F7002309F800F50ABC
:1002E8000319F60A0319F70A0319F80A82317D225D
:1002F80080317108F5077208F63D7308F73D7408F8
:10030800F83D7808031D99297708031D992976086F
:10031800031D9929FA307502031899290430F5004C
:1003280075082000AF007A0808007A08F5007508FB
:100338002000AE0082317D2274082000A3007308DB
:10034800A2007208A1007108A000AF017A08080095
:1003580020002F088400093004020318B7298231CD
:100368000435533E82000030080082316522813115
:100378008730F1000230F2008231A72281318B17D9
:100388000B1722000D168D160D178D17153020002E
:10039800B1004B30B000BE30890BD029B00BD0294A
:1003A800B10BD0290000072A031022000D1E0314E8
:1003B800031CE12922000D161F2A22000D121F2AF4
:1003C800031022008D1E0314031CED2922008D1634
:1003D8001F2A22008D121F2A031022000D1F03144A
:1003E800031CF92922000D171F2A22000D131F2AAA
:1003F800031022008D1F0314031C052A22008D17E9
:100408001F2A22000B2A22000D128D120D138D13A4
:100418001F2A20002F08023A0319D829063A03197F
:10042800FC29013A0319E429033A0319F0290E3A81
:100438000319072A1F2A823191228131013A0319AF
:100448000D2A1F2A1F2A22008C018D01FF3021004E
:100458008C000F308D000C3023008D001F308C0075
:100468000F3024008D0020308C00210095132200CD
:100478009E019D0108000A3028009E00F9309D0069
:100488009C012000931121009315B430F100023033
:10049800F2008231A72282318231B12208008031F4
:1004A800292880314428803199288031AD2881312C
:1004B8006429813125298131252981312E298131EC
:1004C800672982312722823182319A228231823110
:1004D800AD22823182313F220800200093112C087E
:1004E8002D04031908002D088A002C080A008231FF
:1004F800080020002B08F4002A08F3002908F2005D
:100508002808F100080001302000A8070030A93DA4
:100518000030AA3D0030AB3D0800FB0120000D185B
:10052800972AFB01FB0A803128200800703021003F
:10053800990098011A1B08009E2A64008001013165
:10054800890BA22A003472082000AD007108AC00A3
:100558000800163021009700080028001E15080022
:02056800080089
:020000040001F9
:04000E00E4FFFFDF2D
:00000001FF
