:10000000FB2B00308A000408840A8207003459342C
:1000100061347A34FD346C34FD346D3473346134BE
:100020006C342034553441345234543420347434D4
:0C0030006534733474342E340A34003408
:100646008312A40024084423080083120516831687
:100656008516051208008312A8002030A50025087B
:10066600A60001308312A807FF3028078400012066
:10067600A5002508A7002708031908002708232333
:10068600342B8312A20005121B30A000A00B492BAD
:10069600000008308312A0002008A30023080319D5
:1006A6006C2B2208A0000310200CA1002108A20038
:1006B600031C602B83120516622B831205121C3055
:1006C600A000A00B642B01308312A3022308031D94
:1006D600542B05162230A000A00B6F2B000008003B
:1006E60007308312990083169F01051183120515A1
:1006F6000230AB004530AA00A930A900A90B812B16
:10070600AA0B812BAB0B812B882B83120511023090
:10071600AB004530AA00A930A900A90B902BAA0B63
:10072600902BAB0B902B972B282301302E239F2B3E
:10073600831205159F2B0511B6238312A9002908DC
:10074600AC002C08442383122C08413A03199B2B36
:10075600033A03199E2B233A03199B2B033A0319D9
:100766009E2B9F2B9F2B8312A301A401851AB92BC5
:100776002230A000A00BBD2B00000A308312A0007F
:10078600A00BC32B000008308312A0002008A20093
:1007960022080319F22B2408A1002308A000031045
:1007A600A10CA00C2008A3002108A400851EE22BA2
:1007B60080302304A30000302404A400E62BE32B9E
:1007C600E42BE52B000018308312A000A00BE92BC8
:1007D600EC2B01308312A2022208031DCE2B11300E
:1007E600A000A00BF42B8312851EF62B230808000D
:0807F6008312AC018301732B97
:02400E00E4319B
:00000001FF
