:10000000FA2B00308A000408840A82070034503436
:100010004934433431343234463436343734353469
:10002000203473346F346634743449343234433496
:100030000034533465346C3461346D3420344D34C1
:0C00400069346C346C3465347434003462
:1004C2000130492308008312B4153408762208004B
:1004D20021308312A000A00B6C2A0800831285161B
:1004E200051683168512051608008312A5008C22B4
:1004F2007E307B23831225087B238022080083160B
:100502000512831205128516862A872A8316051676
:100512008A2A8B2A0800831285168F2A902A83162C
:10052200051283120512952A962A831285128316C2
:10053200051608008C227E307B23831234087B232D
:100542008312341534087B238312341134087B233D
:10055200802208008312AF002C08AE002E08A800EB
:100562002F08C42283122D0884000120EC220130BE
:100572008312AE002E08AD072D0884000120003A38
:1005820003190800B32A8312AA00D62A28087F3E3C
:10059200D22A2808BF3ED22A2808933ED22A280807
:1005A200D33EA9002908AB00E42A2A08013A03191C
:1005B200C72A033A0319CA2A013A0319CD2A073A6C
:1005C2000319D02AE42A2B08492321308312A900D7
:1005D200A90BE92A08008312A700692283123414A6
:1005E200F0302705A50034080F392504A600260897
:1005F200B4009B2242308312A500A50BFE2A000004
:1006020083122708A50004300310A50DFF3E031D29
:10061200052B34080F392504A6002608B4009B22B6
:1006220042308312A500A50B142B000008000030F5
:1006320076228312B40134080F392038A800280822
:10064200B4009B2207308312A9007D30A800A80BBA
:10065200282BA90B282B283049230D308312A80000
:10066200A80B312B0C3049230D308312A800A80BA4
:10067200382B0630492303308312A9009730A80093
:10068200A80B412BA90B412B462B612264220800A7
:100692008312A700692283123410F0302705A500C7
:1006A20034080F392504A6002608B4009B2207301F
:1006B2008312A6007D30A500A50B5D2BA60B5D2B3A
:1006C20083122708A50004300310A50DFF3E031D69
:1006D200652B34080F392504A6002608B4009B2296
:1006E20007308312A6007D30A500A50B762BA60B42
:1006F200762B08008312A30085120830A000200880
:10070200A40024080319A32B2308A0002007A1009A
:100712002108A3000318922B8316051283120512D7
:10072200962B83160516831205168516982B992B80
:10073200831285128316051601308312A40224083F
:10074200031D852B851283160516A72BA82B831252
:1007520085160030051A0130A20085120800FF2319
:100762008316900007308312990083169F010511AA
:100772006F2203308312B2008A30B1005530B000CC
:10078200B00BC12BB10BC12BB20BC12BC82B182341
:100792008312AC01AC0A1330B0003008AD00013056
:1007A200AB228312AC01AC0A0130B0003008AD00BC
:1007B2000230AB22831205150330B2008A30B10039
:1007C2005530B000B00BE32BB10BE32BB20BE32B94
:1007D200EA2B831205110330B2008A30B100553082
:1007E200B000B00BF22BB10BF22BB20BF22BF92BA8
:0C07F200DB2B8312B301B4018301B02B98
:02400E00C431BB
:00000001FF
