:10000000803102288731FB2F8731B02F8731B42F01
:100010008731B72F8731BC2F8731C02F8731C62F4B
:080020008731CB2F8731CE2F71
:100CF600163021009700080038302100990098012D
:100D06001A1B0800832E86318F26863186317F2670
:100D1600863186317B26080022008C018D01FF304A
:100D260021008C00F0308D00FE3023008D001F3036
:100D36008C00FF3024008D0020308C00210095139C
:100D460022009E019D0108000030F3000030F200F1
:100D56000130F1006830F00020002008A5002108CD
:100D6600A600A701A8010C30A535A60DA70DA80D54
:100D7600890BB72E2808F7002708F6002608F50085
:100D86002508F4008631DC26863171082000AA0089
:100D96007008A9002A08F1002908F0002208A50019
:100DA6002508F2002408F4002308F30087318D2774
:100DB60008000030FC000030FB000030FA00003074
:100DC600F90073087204710470040319252FFD01DC
:100DD600FD0AF31BFA2E0130F035F10DF20DF30D7D
:100DE600890BEF2E0130F8007808FD07EC2E013054
:100DF600F935FA0DFB0DFC0D890BFB2E73087702F6
:100E0600031D0F2F72087602031D0F2F710875023E
:100E1600031D0F2F70087402031C1A2F7008F402AA
:100E26007108F53B7208F63B7308F73B79140130FD
:100E3600F336F20CF10CF00C890B1B2F0130FD027E
:100E4600031DFA2E7C08F3007B08F2007A08F100F5
:100E56007908F00008008631862687310030F000D8
:100E66001030F100F2010130F3000030F400873158
:100E76008D2787313D302000AC00E130AB003F309C
:100E8600890B432FAB0B432FAC0B432F00320030A3
:100E9600F0000430F100F201F20A0430F3000030F1
:100EA600F40087318D27873115302000AC004B3098
:100EB600AB00BE30890B5D2FAB0B5D2FAC0B5D2FEE
:100EC6000000B4302000A0000030A100A2010230D2
:100ED600A3000030A4008631A726873115302000F4
:100EE600AC004B30AB00BE30890B772FAB0B772FA6
:100EF600AC0B772F0000B4302000A0000030A1001A
:100F0600A201A20A0230A3000030A4008631A7265F
:100F16008731572FF601F70171087702031D952FC8
:100F260070087602031808007208031DA52F013009
:100F3600F50075082000AD0708302D06031DD42FD7
:100F4600AD01D42F01302000AD022D0A031DD42F90
:100F56000730F5007508AD00D42F22000D148D1052
:100F6600BA2F22000D14B92F22000D108D140D1169
:100F7600C42F22000D108D14C32F22000D108D10CA
:100F86000D158D11DF2F22000D108D100D15D22F8E
:100F960022000D10D02F22000D148D100D118D156D
:100FA600DF2F20002D088400083004020318DF2FED
:100FB60080310435043E8200F801F9017408790293
:100FC600031DE72F730878020318F62F0B30F50080
:100FD6006230890BEC2FF50BEC2F00320130F8074D
:100FE6000030F93DE12F0130F6070030F73D8F2F35
:0A0FF6002000AD01200087312E2FEE
:020000040001F9
:04000E00E2FFFFDF2F
:00000001FF
